{
    "contractName": "DmmToken",
    "abi": [
        {
            "inputs": [
                {
                    "internalType": "string",
                    "name": "_symbol",
                    "type": "string"
                },
                {
                    "internalType": "string",
                    "name": "_name",
                    "type": "string"
                },
                {
                    "internalType": "uint8",
                    "name": "_decimals",
                    "type": "uint8"
                },
                {
                    "internalType": "uint256",
                    "name": "_minMintAmount",
                    "type": "uint256"
                },
                {
                    "internalType": "uint256",
                    "name": "_minRedeemAmount",
                    "type": "uint256"
                },
                {
                    "internalType": "uint256",
                    "name": "_totalSupply",
                    "type": "uint256"
                },
                {
                    "internalType": "address",
                    "name": "_controller",
                    "type": "address"
                }
            ],
            "payable": false,
            "stateMutability": "nonpayable",
            "type": "constructor"
        },
        {
            "anonymous": false,
            "inputs": [
                {
                    "indexed": true,
                    "internalType": "address",
                    "name": "owner",
                    "type": "address"
                },
                {
                    "indexed": true,
                    "internalType": "address",
                    "name": "spender",
                    "type": "address"
                },
                {
                    "indexed": false,
                    "internalType": "uint256",
                    "name": "value",
                    "type": "uint256"
                }
            ],
            "name": "Approval",
            "type": "event"
        },
        {
            "anonymous": false,
            "inputs": [
                {
                    "indexed": true,
                    "internalType": "address",
                    "name": "owner",
                    "type": "address"
                },
                {
                    "indexed": true,
                    "internalType": "address",
                    "name": "recipient",
                    "type": "address"
                },
                {
                    "indexed": false,
                    "internalType": "uint256",
                    "name": "amount",
                    "type": "uint256"
                }
            ],
            "name": "FeeTransfer",
            "type": "event"
        },
        {
            "anonymous": false,
            "inputs": [
                {
                    "indexed": true,
                    "internalType": "address",
                    "name": "minter",
                    "type": "address"
                },
                {
                    "indexed": true,
                    "internalType": "address",
                    "name": "recipient",
                    "type": "address"
                },
                {
                    "indexed": false,
                    "internalType": "uint256",
                    "name": "amount",
                    "type": "uint256"
                }
            ],
            "name": "Mint",
            "type": "event"
        },
        {
            "anonymous": false,
            "inputs": [
                {
                    "indexed": true,
                    "internalType": "address",
                    "name": "owner",
                    "type": "address"
                },
                {
                    "indexed": true,
                    "internalType": "address",
                    "name": "feeRecipient",
                    "type": "address"
                },
                {
                    "indexed": false,
                    "internalType": "uint256",
                    "name": "nonce",
                    "type": "uint256"
                },
                {
                    "indexed": false,
                    "internalType": "uint256",
                    "name": "expiry",
                    "type": "uint256"
                },
                {
                    "indexed": false,
                    "internalType": "uint256",
                    "name": "feeAmount",
                    "type": "uint256"
                }
            ],
            "name": "OffChainRequestValidated",
            "type": "event"
        },
        {
            "anonymous": false,
            "inputs": [
                {
                    "indexed": true,
                    "internalType": "address",
                    "name": "previousOwner",
                    "type": "address"
                },
                {
                    "indexed": true,
                    "internalType": "address",
                    "name": "newOwner",
                    "type": "address"
                }
            ],
            "name": "OwnershipTransferred",
            "type": "event"
        },
        {
            "anonymous": false,
            "inputs": [
                {
                    "indexed": true,
                    "internalType": "address",
                    "name": "redeemer",
                    "type": "address"
                },
                {
                    "indexed": true,
                    "internalType": "address",
                    "name": "recipient",
                    "type": "address"
                },
                {
                    "indexed": false,
                    "internalType": "uint256",
                    "name": "amount",
                    "type": "uint256"
                }
            ],
            "name": "Redeem",
            "type": "event"
        },
        {
            "anonymous": false,
            "inputs": [
                {
                    "indexed": false,
                    "internalType": "uint256",
                    "name": "oldTotalSupply",
                    "type": "uint256"
                },
                {
                    "indexed": false,
                    "internalType": "uint256",
                    "name": "newTotalSupply",
                    "type": "uint256"
                }
            ],
            "name": "TotalSupplyDecreased",
            "type": "event"
        },
        {
            "anonymous": false,
            "inputs": [
                {
                    "indexed": false,
                    "internalType": "uint256",
                    "name": "oldTotalSupply",
                    "type": "uint256"
                },
                {
                    "indexed": false,
                    "internalType": "uint256",
                    "name": "newTotalSupply",
                    "type": "uint256"
                }
            ],
            "name": "TotalSupplyIncreased",
            "type": "event"
        },
        {
            "anonymous": false,
            "inputs": [
                {
                    "indexed": true,
                    "internalType": "address",
                    "name": "from",
                    "type": "address"
                },
                {
                    "indexed": true,
                    "internalType": "address",
                    "name": "to",
                    "type": "address"
                },
                {
                    "indexed": false,
                    "internalType": "uint256",
                    "name": "value",
                    "type": "uint256"
                }
            ],
            "name": "Transfer",
            "type": "event"
        },
        {
            "payable": true,
            "stateMutability": "payable",
            "type": "fallback"
        },
        {
            "constant": true,
            "inputs": [],
            "name": "EXCHANGE_RATE_BASE_RATE",
            "outputs": [
                {
                    "internalType": "uint256",
                    "name": "",
                    "type": "uint256"
                }
            ],
            "payable": false,
            "stateMutability": "view",
            "type": "function"
        },
        {
            "constant": true,
            "inputs": [],
            "name": "MINT_TYPE_HASH",
            "outputs": [
                {
                    "internalType": "bytes32",
                    "name": "",
                    "type": "bytes32"
                }
            ],
            "payable": false,
            "stateMutability": "view",
            "type": "function"
        },
        {
            "constant": true,
            "inputs": [],
            "name": "PERMIT_TYPE_HASH",
            "outputs": [
                {
                    "internalType": "bytes32",
                    "name": "",
                    "type": "bytes32"
                }
            ],
            "payable": false,
            "stateMutability": "view",
            "type": "function"
        },
        {
            "constant": true,
            "inputs": [],
            "name": "REDEEM_TYPE_HASH",
            "outputs": [
                {
                    "internalType": "bytes32",
                    "name": "",
                    "type": "bytes32"
                }
            ],
            "payable": false,
            "stateMutability": "view",
            "type": "function"
        },
        {
            "constant": true,
            "inputs": [],
            "name": "TRANSFER_TYPE_HASH",
            "outputs": [
                {
                    "internalType": "bytes32",
                    "name": "",
                    "type": "bytes32"
                }
            ],
            "payable": false,
            "stateMutability": "view",
            "type": "function"
        },
        {
            "constant": true,
            "inputs": [
                {
                    "internalType": "address",
                    "name": "owner",
                    "type": "address"
                },
                {
                    "internalType": "address",
                    "name": "spender",
                    "type": "address"
                }
            ],
            "name": "allowance",
            "outputs": [
                {
                    "internalType": "uint256",
                    "name": "",
                    "type": "uint256"
                }
            ],
            "payable": false,
            "stateMutability": "view",
            "type": "function"
        },
        {
            "constant": false,
            "inputs": [
                {
                    "internalType": "address",
                    "name": "spender",
                    "type": "address"
                },
                {
                    "internalType": "uint256",
                    "name": "amount",
                    "type": "uint256"
                }
            ],
            "name": "approve",
            "outputs": [
                {
                    "internalType": "bool",
                    "name": "",
                    "type": "bool"
                }
            ],
            "payable": false,
            "stateMutability": "nonpayable",
            "type": "function"
        },
        {
            "constant": true,
            "inputs": [
                {
                    "internalType": "address",
                    "name": "account",
                    "type": "address"
                }
            ],
            "name": "balanceOf",
            "outputs": [
                {
                    "internalType": "uint256",
                    "name": "",
                    "type": "uint256"
                }
            ],
            "payable": false,
            "stateMutability": "view",
            "type": "function"
        },
        {
            "constant": true,
            "inputs": [],
            "name": "controller",
            "outputs": [
                {
                    "internalType": "contract IDmmController",
                    "name": "",
                    "type": "address"
                }
            ],
            "payable": false,
            "stateMutability": "view",
            "type": "function"
        },
        {
            "constant": true,
            "inputs": [],
            "name": "decimals",
            "outputs": [
                {
                    "internalType": "uint8",
                    "name": "",
                    "type": "uint8"
                }
            ],
            "payable": false,
            "stateMutability": "view",
            "type": "function"
        },
        {
            "constant": false,
            "inputs": [
                {
                    "internalType": "address",
                    "name": "spender",
                    "type": "address"
                },
                {
                    "internalType": "uint256",
                    "name": "subtractedValue",
                    "type": "uint256"
                }
            ],
            "name": "decreaseAllowance",
            "outputs": [
                {
                    "internalType": "bool",
                    "name": "",
                    "type": "bool"
                }
            ],
            "payable": false,
            "stateMutability": "nonpayable",
            "type": "function"
        },
        {
            "constant": true,
            "inputs": [],
            "name": "domainSeparator",
            "outputs": [
                {
                    "internalType": "bytes32",
                    "name": "",
                    "type": "bytes32"
                }
            ],
            "payable": false,
            "stateMutability": "view",
            "type": "function"
        },
        {
            "constant": false,
            "inputs": [
                {
                    "internalType": "address",
                    "name": "spender",
                    "type": "address"
                },
                {
                    "internalType": "uint256",
                    "name": "addedValue",
                    "type": "uint256"
                }
            ],
            "name": "increaseAllowance",
            "outputs": [
                {
                    "internalType": "bool",
                    "name": "",
                    "type": "bool"
                }
            ],
            "payable": false,
            "stateMutability": "nonpayable",
            "type": "function"
        },
        {
            "constant": true,
            "inputs": [],
            "name": "isOwner",
            "outputs": [
                {
                    "internalType": "bool",
                    "name": "",
                    "type": "bool"
                }
            ],
            "payable": false,
            "stateMutability": "view",
            "type": "function"
        },
        {
            "constant": true,
            "inputs": [],
            "name": "minMintAmount",
            "outputs": [
                {
                    "internalType": "uint256",
                    "name": "",
                    "type": "uint256"
                }
            ],
            "payable": false,
            "stateMutability": "view",
            "type": "function"
        },
        {
            "constant": true,
            "inputs": [],
            "name": "minRedeemAmount",
            "outputs": [
                {
                    "internalType": "uint256",
                    "name": "",
                    "type": "uint256"
                }
            ],
            "payable": false,
            "stateMutability": "view",
            "type": "function"
        },
        {
            "constant": true,
            "inputs": [],
            "name": "name",
            "outputs": [
                {
                    "internalType": "string",
                    "name": "",
                    "type": "string"
                }
            ],
            "payable": false,
            "stateMutability": "view",
            "type": "function"
        },
        {
            "constant": true,
            "inputs": [],
            "name": "owner",
            "outputs": [
                {
                    "internalType": "address",
                    "name": "",
                    "type": "address"
                }
            ],
            "payable": false,
            "stateMutability": "view",
            "type": "function"
        },
        {
            "constant": false,
            "inputs": [],
            "name": "renounceOwnership",
            "outputs": [],
            "payable": false,
            "stateMutability": "nonpayable",
            "type": "function"
        },
        {
            "constant": true,
            "inputs": [],
            "name": "symbol",
            "outputs": [
                {
                    "internalType": "string",
                    "name": "",
                    "type": "string"
                }
            ],
            "payable": false,
            "stateMutability": "view",
            "type": "function"
        },
        {
            "constant": true,
            "inputs": [],
            "name": "totalSupply",
            "outputs": [
                {
                    "internalType": "uint256",
                    "name": "",
                    "type": "uint256"
                }
            ],
            "payable": false,
            "stateMutability": "view",
            "type": "function"
        },
        {
            "constant": false,
            "inputs": [
                {
                    "internalType": "address",
                    "name": "recipient",
                    "type": "address"
                },
                {
                    "internalType": "uint256",
                    "name": "amount",
                    "type": "uint256"
                }
            ],
            "name": "transfer",
            "outputs": [
                {
                    "internalType": "bool",
                    "name": "",
                    "type": "bool"
                }
            ],
            "payable": false,
            "stateMutability": "nonpayable",
            "type": "function"
        },
        {
            "constant": false,
            "inputs": [
                {
                    "internalType": "address",
                    "name": "sender",
                    "type": "address"
                },
                {
                    "internalType": "address",
                    "name": "recipient",
                    "type": "address"
                },
                {
                    "internalType": "uint256",
                    "name": "amount",
                    "type": "uint256"
                }
            ],
            "name": "transferFrom",
            "outputs": [
                {
                    "internalType": "bool",
                    "name": "",
                    "type": "bool"
                }
            ],
            "payable": false,
            "stateMutability": "nonpayable",
            "type": "function"
        },
        {
            "constant": false,
            "inputs": [
                {
                    "internalType": "address",
                    "name": "newOwner",
                    "type": "address"
                }
            ],
            "name": "transferOwnership",
            "outputs": [],
            "payable": false,
            "stateMutability": "nonpayable",
            "type": "function"
        },
        {
            "constant": true,
            "inputs": [],
            "name": "pausable",
            "outputs": [
                {
                    "internalType": "address",
                    "name": "",
                    "type": "address"
                }
            ],
            "payable": false,
            "stateMutability": "view",
            "type": "function"
        },
        {
            "constant": true,
            "inputs": [],
            "name": "blacklistable",
            "outputs": [
                {
                    "internalType": "contract Blacklistable",
                    "name": "",
                    "type": "address"
                }
            ],
            "payable": false,
            "stateMutability": "view",
            "type": "function"
        },
        {
            "constant": true,
            "inputs": [],
            "name": "activeSupply",
            "outputs": [
                {
                    "internalType": "uint256",
                    "name": "",
                    "type": "uint256"
                }
            ],
            "payable": false,
            "stateMutability": "view",
            "type": "function"
        },
        {
            "constant": false,
            "inputs": [
                {
                    "internalType": "uint256",
                    "name": "amount",
                    "type": "uint256"
                }
            ],
            "name": "increaseTotalSupply",
            "outputs": [],
            "payable": false,
            "stateMutability": "nonpayable",
            "type": "function"
        },
        {
            "constant": false,
            "inputs": [
                {
                    "internalType": "uint256",
                    "name": "amount",
                    "type": "uint256"
                }
            ],
            "name": "decreaseTotalSupply",
            "outputs": [],
            "payable": false,
            "stateMutability": "nonpayable",
            "type": "function"
        },
        {
            "constant": false,
            "inputs": [
                {
                    "internalType": "uint256",
                    "name": "underlyingAmount",
                    "type": "uint256"
                }
            ],
            "name": "depositUnderlying",
            "outputs": [
                {
                    "internalType": "bool",
                    "name": "",
                    "type": "bool"
                }
            ],
            "payable": false,
            "stateMutability": "nonpayable",
            "type": "function"
        },
        {
            "constant": false,
            "inputs": [
                {
                    "internalType": "uint256",
                    "name": "underlyingAmount",
                    "type": "uint256"
                }
            ],
            "name": "withdrawUnderlying",
            "outputs": [
                {
                    "internalType": "bool",
                    "name": "",
                    "type": "bool"
                }
            ],
            "payable": false,
            "stateMutability": "nonpayable",
            "type": "function"
        },
        {
            "constant": true,
            "inputs": [],
            "name": "getCurrentExchangeRate",
            "outputs": [
                {
                    "internalType": "uint256",
                    "name": "",
                    "type": "uint256"
                }
            ],
            "payable": false,
            "stateMutability": "view",
            "type": "function"
        },
        {
            "constant": true,
            "inputs": [],
            "name": "exchangeRateLastUpdatedTimestamp",
            "outputs": [
                {
                    "internalType": "uint256",
                    "name": "",
                    "type": "uint256"
                }
            ],
            "payable": false,
            "stateMutability": "view",
            "type": "function"
        },
        {
            "constant": true,
            "inputs": [],
            "name": "exchangeRateLastUpdatedBlockNumber",
            "outputs": [
                {
                    "internalType": "uint256",
                    "name": "",
                    "type": "uint256"
                }
            ],
            "payable": false,
            "stateMutability": "view",
            "type": "function"
        },
        {
            "constant": true,
            "inputs": [
                {
                    "internalType": "address",
                    "name": "owner",
                    "type": "address"
                }
            ],
            "name": "nonceOf",
            "outputs": [
                {
                    "internalType": "uint256",
                    "name": "",
                    "type": "uint256"
                }
            ],
            "payable": false,
            "stateMutability": "view",
            "type": "function"
        },
        {
            "constant": false,
            "inputs": [
                {
                    "internalType": "uint256",
                    "name": "underlyingAmount",
                    "type": "uint256"
                }
            ],
            "name": "mint",
            "outputs": [
                {
                    "internalType": "uint256",
                    "name": "",
                    "type": "uint256"
                }
            ],
            "payable": false,
            "stateMutability": "nonpayable",
            "type": "function"
        },
        {
            "constant": false,
            "inputs": [
                {
                    "internalType": "address",
                    "name": "owner",
                    "type": "address"
                },
                {
                    "internalType": "address",
                    "name": "recipient",
                    "type": "address"
                },
                {
                    "internalType": "uint256",
                    "name": "nonce",
                    "type": "uint256"
                },
                {
                    "internalType": "uint256",
                    "name": "expiry",
                    "type": "uint256"
                },
                {
                    "internalType": "uint256",
                    "name": "underlyingAmount",
                    "type": "uint256"
                },
                {
                    "internalType": "uint256",
                    "name": "feeAmount",
                    "type": "uint256"
                },
                {
                    "internalType": "address",
                    "name": "feeRecipient",
                    "type": "address"
                },
                {
                    "internalType": "uint8",
                    "name": "v",
                    "type": "uint8"
                },
                {
                    "internalType": "bytes32",
                    "name": "r",
                    "type": "bytes32"
                },
                {
                    "internalType": "bytes32",
                    "name": "s",
                    "type": "bytes32"
                }
            ],
            "name": "mintFromGaslessRequest",
            "outputs": [
                {
                    "internalType": "uint256",
                    "name": "",
                    "type": "uint256"
                }
            ],
            "payable": false,
            "stateMutability": "nonpayable",
            "type": "function"
        },
        {
            "constant": false,
            "inputs": [
                {
                    "internalType": "uint256",
                    "name": "amount",
                    "type": "uint256"
                }
            ],
            "name": "redeem",
            "outputs": [
                {
                    "internalType": "uint256",
                    "name": "",
                    "type": "uint256"
                }
            ],
            "payable": false,
            "stateMutability": "nonpayable",
            "type": "function"
        },
        {
            "constant": false,
            "inputs": [
                {
                    "internalType": "address",
                    "name": "owner",
                    "type": "address"
                },
                {
                    "internalType": "address",
                    "name": "recipient",
                    "type": "address"
                },
                {
                    "internalType": "uint256",
                    "name": "nonce",
                    "type": "uint256"
                },
                {
                    "internalType": "uint256",
                    "name": "expiry",
                    "type": "uint256"
                },
                {
                    "internalType": "uint256",
                    "name": "amount",
                    "type": "uint256"
                },
                {
                    "internalType": "uint256",
                    "name": "feeAmount",
                    "type": "uint256"
                },
                {
                    "internalType": "address",
                    "name": "feeRecipient",
                    "type": "address"
                },
                {
                    "internalType": "uint8",
                    "name": "v",
                    "type": "uint8"
                },
                {
                    "internalType": "bytes32",
                    "name": "r",
                    "type": "bytes32"
                },
                {
                    "internalType": "bytes32",
                    "name": "s",
                    "type": "bytes32"
                }
            ],
            "name": "redeemFromGaslessRequest",
            "outputs": [
                {
                    "internalType": "uint256",
                    "name": "",
                    "type": "uint256"
                }
            ],
            "payable": false,
            "stateMutability": "nonpayable",
            "type": "function"
        },
        {
            "constant": false,
            "inputs": [
                {
                    "internalType": "address",
                    "name": "owner",
                    "type": "address"
                },
                {
                    "internalType": "address",
                    "name": "spender",
                    "type": "address"
                },
                {
                    "internalType": "uint256",
                    "name": "nonce",
                    "type": "uint256"
                },
                {
                    "internalType": "uint256",
                    "name": "expiry",
                    "type": "uint256"
                },
                {
                    "internalType": "bool",
                    "name": "allowed",
                    "type": "bool"
                },
                {
                    "internalType": "uint256",
                    "name": "feeAmount",
                    "type": "uint256"
                },
                {
                    "internalType": "address",
                    "name": "feeRecipient",
                    "type": "address"
                },
                {
                    "internalType": "uint8",
                    "name": "v",
                    "type": "uint8"
                },
                {
                    "internalType": "bytes32",
                    "name": "r",
                    "type": "bytes32"
                },
                {
                    "internalType": "bytes32",
                    "name": "s",
                    "type": "bytes32"
                }
            ],
            "name": "permit",
            "outputs": [],
            "payable": false,
            "stateMutability": "nonpayable",
            "type": "function"
        },
        {
            "constant": false,
            "inputs": [
                {
                    "internalType": "address",
                    "name": "owner",
                    "type": "address"
                },
                {
                    "internalType": "address",
                    "name": "recipient",
                    "type": "address"
                },
                {
                    "internalType": "uint256",
                    "name": "nonce",
                    "type": "uint256"
                },
                {
                    "internalType": "uint256",
                    "name": "expiry",
                    "type": "uint256"
                },
                {
                    "internalType": "uint256",
                    "name": "amount",
                    "type": "uint256"
                },
                {
                    "internalType": "uint256",
                    "name": "feeAmount",
                    "type": "uint256"
                },
                {
                    "internalType": "address",
                    "name": "feeRecipient",
                    "type": "address"
                },
                {
                    "internalType": "uint8",
                    "name": "v",
                    "type": "uint8"
                },
                {
                    "internalType": "bytes32",
                    "name": "r",
                    "type": "bytes32"
                },
                {
                    "internalType": "bytes32",
                    "name": "s",
                    "type": "bytes32"
                }
            ],
            "name": "transferFromGaslessRequest",
            "outputs": [],
            "payable": false,
            "stateMutability": "nonpayable",
            "type": "function"
        }
    ],
    "bytecode": "0x60806040523480156200001157600080fd5b50604051620075e5380380620075e5833981810160405260e08110156200003757600080fd5b81019080805160405193929190846401000000008211156200005857600080fd5b838201915060208201858111156200006f57600080fd5b82518660018202830111640100000000821117156200008d57600080fd5b8083526020830192505050908051906020019080838360005b83811015620000c3578082015181840152602081019050620000a6565b50505050905090810190601f168015620000f15780820380516001836020036101000a031916815260200191505b50604052602001805160405193929190846401000000008211156200011557600080fd5b838201915060208201858111156200012c57600080fd5b82518660018202830111640100000000821117156200014a57600080fd5b8083526020830192505050908051906020019080838360005b838110156200018057808201518184015260208101905062000163565b50505050905090810190601f168015620001ae5780820380516001836020036101000a031916815260200191505b5060405260200180519060200190929190805190602001909291908051906020019092919080519060200190929190805190602001909291905050506001600081905550620002026200050060201b60201c565b600160006101000a81548173ffffffffffffffffffffffffffffffffffffffff021916908373ffffffffffffffffffffffffffffffffffffffff160217905550600160009054906101000a900473ffffffffffffffffffffffffffffffffffffffff1673ffffffffffffffffffffffffffffffffffffffff16600073ffffffffffffffffffffffffffffffffffffffff167f8be0079c531659141344cd1fd0a4f28419497f9722a3daafe3b4186f6b6457e060405160405180910390a38660059080519060200190620002d7929190620006be565b508560069080519060200190620002f0929190620006be565b5084600760006101000a81548160ff021916908360ff160217905550836008819055508260098190555080600a60006101000a81548173ffffffffffffffffffffffffffffffffffffffff021916908373ffffffffffffffffffffffffffffffffffffffff1602179055506000469050604051808062007593605291396052019050604051809103902060066040518082805460018160011615610100020316600290048015620003db5780601f10620003b8576101008083540402835291820191620003db565b820191906000526020600020905b815481529060010190602001808311620003c6575b505091505060405180910390206040518060400160405280600181526020017f3100000000000000000000000000000000000000000000000000000000000000815250805190602001208330604051602001808681526020018581526020018481526020018381526020018273ffffffffffffffffffffffffffffffffffffffff1673ffffffffffffffffffffffffffffffffffffffff1681526020019550505050505060405160208183030381529060405280519060200120600b819055506040518060600160405280670de0b6b3a7640000815260200142815260200143815250600c600082015181600001556020820151816001015560408201518160020155905050620004f2836200050860201b60201c565b50505050505050506200076d565b600033905090565b600030905062000529826004546200063560201b6200432a1790919060201c565b6004819055506200058882600260008473ffffffffffffffffffffffffffffffffffffffff1673ffffffffffffffffffffffffffffffffffffffff168152602001908152602001600020546200063560201b6200432a1790919060201c565b600260008373ffffffffffffffffffffffffffffffffffffffff1673ffffffffffffffffffffffffffffffffffffffff168152602001908152602001600020819055508073ffffffffffffffffffffffffffffffffffffffff16600073ffffffffffffffffffffffffffffffffffffffff167fddf252ad1be2c89b69c2b068fc378daa952ba7f163c4a11628f55a4df523b3ef846040518082815260200191505060405180910390a35050565b600080828401905083811015620006b4576040517f08c379a000000000000000000000000000000000000000000000000000000000815260040180806020018281038252601b8152602001807f536166654d6174683a206164646974696f6e206f766572666c6f77000000000081525060200191505060405180910390fd5b8091505092915050565b828054600181600116156101000203166002900490600052602060002090601f016020900481019282601f106200070157805160ff191683800117855562000732565b8280016001018555821562000732579182015b828111156200073157825182559160200191906001019062000714565b5b50905062000741919062000745565b5090565b6200076a91905b80821115620007665760008160009055506001016200074c565b5090565b90565b616e16806200077d6000396000f3fe6080604052600436106102465760003560e01c80637b8d665e11610139578063b9f5be41116100b6578063e55296f11161007a578063e55296f114610ee5578063ed2a2d6414610f10578063f2fde38b14610f75578063f698da2514610fc6578063f77c479114610ff1578063fcb32d3f1461104857610246565b8063b9f5be4114610d68578063babd701214610dbb578063c6786e0414610de6578063db006a7514610e11578063dd62ed3e14610e6057610246565b806395d89b41116100fd57806395d89b4114610ab4578063a0712d6814610b44578063a457c2d714610b93578063a9059cbb14610c06578063aad393cb14610c7957610246565b80637b8d665e146109ad57806380d9fde6146109d85780638aeb7e6a14610a035780638da5cb5b14610a2e5780638f32d59b14610a8557610246565b806336775847116101c75780634e6c463c1161018b5780634e6c463c146107dc5780636e1145111461080757806370a0823114610842578063715018a6146108a757806378848308146108be57610246565b806336775847146105e157806339509351146106385780633b2eff34146106ab5780633ca967f3146107865780634d4bb197146107b157610246565b80631071a2901161020e5780631071a2901461046457806318160ddd146104b75780631d43cc98146104e257806323b872dd1461051d578063313ce567146105b057610246565b80630107f15b146102b457806301e9d7571461030b57806306fdde03146103365780630912ae6d146103c6578063095ea7b3146103f1575b6040517f08c379a00000000000000000000000000000000000000000000000000000000081526004018080602001828103825260138152602001807f4e4f5f44454641554c545f46554e4354494f4e0000000000000000000000000081525060200191505060405180910390fd5b3480156102c057600080fd5b506102c9611125565b604051808273ffffffffffffffffffffffffffffffffffffffff1673ffffffffffffffffffffffffffffffffffffffff16815260200191505060405180910390f35b34801561031757600080fd5b506103206111cf565b6040518082815260200191505060405180910390f35b34801561034257600080fd5b5061034b6111d5565b6040518080602001828103825283818151815260200191508051906020019080838360005b8381101561038b578082015181840152602081019050610370565b50505050905090810190601f1680156103b85780820380516001836020036101000a031916815260200191505b509250505060405180910390f35b3480156103d257600080fd5b506103db611273565b6040518082815260200191505060405180910390f35b3480156103fd57600080fd5b5061044a6004803603604081101561041457600080fd5b81019080803573ffffffffffffffffffffffffffffffffffffffff16906020019092919080359060200190929190505050611279565b604051808215151515815260200191505060405180910390f35b34801561047057600080fd5b5061049d6004803603602081101561048757600080fd5b8101908080359060200190929190505050611297565b604051808215151515815260200191505060405180910390f35b3480156104c357600080fd5b506104cc611447565b6040518082815260200191505060405180910390f35b3480156104ee57600080fd5b5061051b6004803603602081101561050557600080fd5b8101908080359060200190929190505050611451565b005b34801561052957600080fd5b506105966004803603606081101561054057600080fd5b81019080803573ffffffffffffffffffffffffffffffffffffffff169060200190929190803573ffffffffffffffffffffffffffffffffffffffff1690602001909291908035906020019092919050505061161b565b604051808215151515815260200191505060405180910390f35b3480156105bc57600080fd5b506105c561179f565b604051808260ff1660ff16815260200191505060405180910390f35b3480156105ed57600080fd5b506105f66117b2565b604051808273ffffffffffffffffffffffffffffffffffffffff1673ffffffffffffffffffffffffffffffffffffffff16815260200191505060405180910390f35b34801561064457600080fd5b506106916004803603604081101561065b57600080fd5b81019080803573ffffffffffffffffffffffffffffffffffffffff169060200190929190803590602001909291905050506117dc565b604051808215151515815260200191505060405180910390f35b3480156106b757600080fd5b5061078460048036036101408110156106cf57600080fd5b81019080803573ffffffffffffffffffffffffffffffffffffffff169060200190929190803573ffffffffffffffffffffffffffffffffffffffff16906020019092919080359060200190929190803590602001909291908035906020019092919080359060200190929190803573ffffffffffffffffffffffffffffffffffffffff169060200190929190803560ff1690602001909291908035906020019092919080359060200190929190505050611b0a565b005b34801561079257600080fd5b5061079b611d5c565b6040518082815260200191505060405180910390f35b3480156107bd57600080fd5b506107c6611e50565b6040518082815260200191505060405180910390f35b3480156107e857600080fd5b506107f1611e77565b6040518082815260200191505060405180910390f35b34801561081357600080fd5b506108406004803603602081101561082a57600080fd5b8101908080359060200190929190505050611e84565b005b34801561084e57600080fd5b506108916004803603602081101561086557600080fd5b81019080803573ffffffffffffffffffffffffffffffffffffffff1690602001909291905050506120cc565b6040518082815260200191505060405180910390f35b3480156108b357600080fd5b506108bc612115565b005b3480156108ca57600080fd5b5061099760048036036101408110156108e257600080fd5b81019080803573ffffffffffffffffffffffffffffffffffffffff169060200190929190803573ffffffffffffffffffffffffffffffffffffffff16906020019092919080359060200190929190803590602001909291908035906020019092919080359060200190929190803573ffffffffffffffffffffffffffffffffffffffff169060200190929190803560ff1690602001909291908035906020019092919080359060200190929190505050612250565b6040518082815260200191505060405180910390f35b3480156109b957600080fd5b506109c2612549565b6040518082815260200191505060405180910390f35b3480156109e457600080fd5b506109ed612570565b6040518082815260200191505060405180910390f35b348015610a0f57600080fd5b50610a1861257c565b6040518082815260200191505060405180910390f35b348015610a3a57600080fd5b50610a43612589565b604051808273ffffffffffffffffffffffffffffffffffffffff1673ffffffffffffffffffffffffffffffffffffffff16815260200191505060405180910390f35b348015610a9157600080fd5b50610a9a6125b3565b604051808215151515815260200191505060405180910390f35b348015610ac057600080fd5b50610ac9612612565b6040518080602001828103825283818151815260200191508051906020019080838360005b83811015610b09578082015181840152602081019050610aee565b50505050905090810190601f168015610b365780820380516001836020036101000a031916815260200191505b509250505060405180910390f35b348015610b5057600080fd5b50610b7d60048036036020811015610b6757600080fd5b81019080803590602001909291905050506126b0565b6040518082815260200191505060405180910390f35b348015610b9f57600080fd5b50610bec60048036036040811015610bb657600080fd5b81019080803573ffffffffffffffffffffffffffffffffffffffff169060200190929190803590602001909291905050506129a7565b604051808215151515815260200191505060405180910390f35b348015610c1257600080fd5b50610c5f60048036036040811015610c2957600080fd5b81019080803573ffffffffffffffffffffffffffffffffffffffff16906020019092919080359060200190929190505050612d0c565b604051808215151515815260200191505060405180910390f35b348015610c8557600080fd5b50610d526004803603610140811015610c9d57600080fd5b81019080803573ffffffffffffffffffffffffffffffffffffffff169060200190929190803573ffffffffffffffffffffffffffffffffffffffff16906020019092919080359060200190929190803590602001909291908035906020019092919080359060200190929190803573ffffffffffffffffffffffffffffffffffffffff169060200190929190803560ff1690602001909291908035906020019092919080359060200190929190505050612db8565b6040518082815260200191505060405180910390f35b348015610d7457600080fd5b50610da160048036036020811015610d8b57600080fd5b8101908080359060200190929190505050612f65565b604051808215151515815260200191505060405180910390f35b348015610dc757600080fd5b50610dd0613115565b6040518082815260200191505060405180910390f35b348015610df257600080fd5b50610dfb61313e565b6040518082815260200191505060405180910390f35b348015610e1d57600080fd5b50610e4a60048036036020811015610e3457600080fd5b8101908080359060200190929190505050613165565b6040518082815260200191505060405180910390f35b348015610e6c57600080fd5b50610ecf60048036036040811015610e8357600080fd5b81019080803573ffffffffffffffffffffffffffffffffffffffff169060200190929190803573ffffffffffffffffffffffffffffffffffffffff169060200190929190505050613312565b6040518082815260200191505060405180910390f35b348015610ef157600080fd5b50610efa613399565b6040518082815260200191505060405180910390f35b348015610f1c57600080fd5b50610f5f60048036036020811015610f3357600080fd5b81019080803573ffffffffffffffffffffffffffffffffffffffff1690602001909291905050506133c0565b6040518082815260200191505060405180910390f35b348015610f8157600080fd5b50610fc460048036036020811015610f9857600080fd5b81019080803573ffffffffffffffffffffffffffffffffffffffff16906020019092919050505061340c565b005b348015610fd257600080fd5b50610fdb613492565b6040518082815260200191505060405180910390f35b348015610ffd57600080fd5b50611006613498565b604051808273ffffffffffffffffffffffffffffffffffffffff1673ffffffffffffffffffffffffffffffffffffffff16815260200191505060405180910390f35b34801561105457600080fd5b50611123600480360361014081101561106c57600080fd5b81019080803573ffffffffffffffffffffffffffffffffffffffff169060200190929190803573ffffffffffffffffffffffffffffffffffffffff169060200190929190803590602001909291908035906020019092919080351515906020019092919080359060200190929190803573ffffffffffffffffffffffffffffffffffffffff169060200190929190803560ff16906020019092919080359060200190929190803590602001909291905050506134be565b005b6000600a60009054906101000a900473ffffffffffffffffffffffffffffffffffffffff1673ffffffffffffffffffffffffffffffffffffffff16630107f15b6040518163ffffffff1660e01b815260040160206040518083038186803b15801561118f57600080fd5b505afa1580156111a3573d6000803e3d6000fd5b505050506040513d60208110156111b957600080fd5b8101908080519060200190929190505050905090565b60085481565b60068054600181600116156101000203166002900480601f01602080910402602001604051908101604052809291908181526020018280546001816001161561010002031660029004801561126b5780601f106112405761010080835404028352916020019161126b565b820191906000526020600020905b81548152906001019060200180831161124e57829003601f168201915b505050505081565b60095481565b600061128d6112866136f4565b84846136fc565b6001905092915050565b60006112a16125b3565b611313576040517f08c379a00000000000000000000000000000000000000000000000000000000081526004018080602001828103825260208152602001807f4f776e61626c653a2063616c6c6572206973206e6f7420746865206f776e657281525060200191505060405180910390fd5b61131b6117b2565b73ffffffffffffffffffffffffffffffffffffffff16635c975abb6040518163ffffffff1660e01b815260040160206040518083038186803b15801561136057600080fd5b505afa158015611374573d6000803e3d6000fd5b505050506040513d602081101561138a57600080fd5b81019080805190602001909291905050501561140e576040517f08c379a00000000000000000000000000000000000000000000000000000000081526004018080602001828103825260108152602001807f45434f53595354454d5f5041555345440000000000000000000000000000000081525060200191505060405180910390fd5b6114406114196136f4565b833073ffffffffffffffffffffffffffffffffffffffff16613b089092919063ffffffff16565b9050919050565b6000600454905090565b6114596125b3565b6114cb576040517f08c379a00000000000000000000000000000000000000000000000000000000081526004018080602001828103825260208152602001807f4f776e61626c653a2063616c6c6572206973206e6f7420746865206f776e657281525060200191505060405180910390fd5b6114d36117b2565b73ffffffffffffffffffffffffffffffffffffffff16635c975abb6040518163ffffffff1660e01b815260040160206040518083038186803b15801561151857600080fd5b505afa15801561152c573d6000803e3d6000fd5b505050506040513d602081101561154257600080fd5b8101908080519060200190929190505050156115c6576040517f08c379a00000000000000000000000000000000000000000000000000000000081526004018080602001828103825260108152602001807f45434f53595354454d5f5041555345440000000000000000000000000000000081525060200191505060405180910390fd5b600060045490506115d682613c7c565b7fc1ac195e725f242f1134867e84d50ce67bb3e701a818a7d220f5908177be826681600454604051808381526020018281526020019250505060405180910390a15050565b60006001600080828254019250508190555060008054905061163e858585613d9b565b61171c8561164a6136f4565b611717866040518060400160405280601a81526020017f5452414e534645525f455843454544535f414c4c4f57414e4345000000000000815250600360008c73ffffffffffffffffffffffffffffffffffffffff1673ffffffffffffffffffffffffffffffffffffffff16815260200190815260200160002060006116cd6136f4565b73ffffffffffffffffffffffffffffffffffffffff1673ffffffffffffffffffffffffffffffffffffffff1681526020019081526020016000205461426a9092919063ffffffff16565b6136fc565b600191506000548114611797576040517f08c379a000000000000000000000000000000000000000000000000000000000815260040180806020018281038252601f8152602001807f5265656e7472616e637947756172643a207265656e7472616e742063616c6c0081525060200191505060405180910390fd5b509392505050565b600760009054906101000a900460ff1681565b6000600a60009054906101000a900473ffffffffffffffffffffffffffffffffffffffff16905090565b60006117e66136f4565b600015156117f2611125565b73ffffffffffffffffffffffffffffffffffffffff1663fe575a87836040518263ffffffff1660e01b8152600401808273ffffffffffffffffffffffffffffffffffffffff1673ffffffffffffffffffffffffffffffffffffffff16815260200191505060206040518083038186803b15801561186e57600080fd5b505afa158015611882573d6000803e3d6000fd5b505050506040513d602081101561189857600080fd5b810190808051906020019092919050505015151461191e576040517f08c379a000000000000000000000000000000000000000000000000000000000815260040180806020018281038252600b8152602001807f424c41434b4c495354454400000000000000000000000000000000000000000081525060200191505060405180910390fd5b836000151561192b611125565b73ffffffffffffffffffffffffffffffffffffffff1663fe575a87836040518263ffffffff1660e01b8152600401808273ffffffffffffffffffffffffffffffffffffffff1673ffffffffffffffffffffffffffffffffffffffff16815260200191505060206040518083038186803b1580156119a757600080fd5b505afa1580156119bb573d6000803e3d6000fd5b505050506040513d60208110156119d157600080fd5b8101908080519060200190929190505050151514611a57576040517f08c379a000000000000000000000000000000000000000000000000000000000815260040180806020018281038252600b8152602001807f424c41434b4c495354454400000000000000000000000000000000000000000081525060200191505060405180910390fd5b611afe611a626136f4565b86611af98760036000611a736136f4565b73ffffffffffffffffffffffffffffffffffffffff1673ffffffffffffffffffffffffffffffffffffffff16815260200190815260200160002060008b73ffffffffffffffffffffffffffffffffffffffff1673ffffffffffffffffffffffffffffffffffffffff1681526020019081526020016000205461432a90919063ffffffff16565b6136fc565b60019250505092915050565b611b126117b2565b73ffffffffffffffffffffffffffffffffffffffff16635c975abb6040518163ffffffff1660e01b815260040160206040518083038186803b158015611b5757600080fd5b505afa158015611b6b573d6000803e3d6000fd5b505050506040513d6020811015611b8157600080fd5b810190808051906020019092919050505015611c05576040517f08c379a00000000000000000000000000000000000000000000000000000000081526004018080602001828103825260108152602001807f45434f53595354454d5f5041555345440000000000000000000000000000000081525060200191505060405180910390fd5b60016000808282540192505081905550600080549050611c24856143b2565b611c73600b547f25166116e36b48414096856a22ea40032193e38f65136c76738e306be6abd58760001b8d8d8d8d8d8d8d8d8d8d600c614486909c9b9a9998979695949392919063ffffffff16565b6000611cbf876040518060400160405280600d81526020017f4645455f544f4f5f4c41524745000000000000000000000000000000000000008152508a61426a9092919063ffffffff16565b9050611ccc8c8c83613d9b565b611cd78c878961470e565b506000548114611d4f576040517f08c379a000000000000000000000000000000000000000000000000000000000815260040180806020018281038252601f8152602001807f5265656e7472616e637947756172643a207265656e7472616e742063616c6c0081525060200191505060405180910390fd5b5050505050505050505050565b6000611e4b600a60009054906101000a900473ffffffffffffffffffffffffffffffffffffffff1673ffffffffffffffffffffffffffffffffffffffff1663af4b4cc5306040518263ffffffff1660e01b8152600401808273ffffffffffffffffffffffffffffffffffffffff1673ffffffffffffffffffffffffffffffffffffffff16815260200191505060206040518083038186803b158015611e0057600080fd5b505afa158015611e14573d6000803e3d6000fd5b505050506040513d6020811015611e2a57600080fd5b8101908080519060200190929190505050600c61480b90919063ffffffff16565b905090565b7f22fa96956322098f6fd394e06f1b7e0f6930565923f9ad3d20802e9a2eb58fb160001b81565b6000600c60010154905090565b611e8c6125b3565b611efe576040517f08c379a00000000000000000000000000000000000000000000000000000000081526004018080602001828103825260208152602001807f4f776e61626c653a2063616c6c6572206973206e6f7420746865206f776e657281525060200191505060405180910390fd5b611f066117b2565b73ffffffffffffffffffffffffffffffffffffffff16635c975abb6040518163ffffffff1660e01b815260040160206040518083038186803b158015611f4b57600080fd5b505afa158015611f5f573d6000803e3d6000fd5b505050506040513d6020811015611f7557600080fd5b810190808051906020019092919050505015611ff9576040517f08c379a00000000000000000000000000000000000000000000000000000000081526004018080602001828103825260108152602001807f45434f53595354454d5f5041555345440000000000000000000000000000000081525060200191505060405180910390fd5b80612003306120cc565b1015612077576040517f08c379a00000000000000000000000000000000000000000000000000000000081526004018080602001828103825260168152602001807f544f4f5f4d5543485f4143544956455f535550504c590000000000000000000081525060200191505060405180910390fd5b600060045490506120878261488f565b7f2f445bbeb0f991d70c61742a5bd2bc2181186c4143ddcc04734e934dc856b3e181600454604051808381526020018281526020019250505060405180910390a15050565b6000600260008373ffffffffffffffffffffffffffffffffffffffff1673ffffffffffffffffffffffffffffffffffffffff168152602001908152602001600020549050919050565b61211d6125b3565b61218f576040517f08c379a00000000000000000000000000000000000000000000000000000000081526004018080602001828103825260208152602001807f4f776e61626c653a2063616c6c6572206973206e6f7420746865206f776e657281525060200191505060405180910390fd5b600073ffffffffffffffffffffffffffffffffffffffff16600160009054906101000a900473ffffffffffffffffffffffffffffffffffffffff1673ffffffffffffffffffffffffffffffffffffffff167f8be0079c531659141344cd1fd0a4f28419497f9722a3daafe3b4186f6b6457e060405160405180910390a36000600160006101000a81548173ffffffffffffffffffffffffffffffffffffffff021916908373ffffffffffffffffffffffffffffffffffffffff160217905550565b600061225a6117b2565b73ffffffffffffffffffffffffffffffffffffffff16635c975abb6040518163ffffffff1660e01b815260040160206040518083038186803b15801561229f57600080fd5b505afa1580156122b3573d6000803e3d6000fd5b505050506040513d60208110156122c957600080fd5b81019080805190602001909291905050501561234d576040517f08c379a00000000000000000000000000000000000000000000000000000000081526004018080602001828103825260108152602001807f45434f53595354454d5f5041555345440000000000000000000000000000000081525060200191505060405180910390fd5b60016000808282540192505081905550600080549050600a60009054906101000a900473ffffffffffffffffffffffffffffffffffffffff1673ffffffffffffffffffffffffffffffffffffffff16634d38f747306040518263ffffffff1660e01b8152600401808273ffffffffffffffffffffffffffffffffffffffff1673ffffffffffffffffffffffffffffffffffffffff16815260200191505060206040518083038186803b15801561240257600080fd5b505afa158015612416573d6000803e3d6000fd5b505050506040513d602081101561242c57600080fd5b81019080805190602001909291905050506124af576040517f08c379a000000000000000000000000000000000000000000000000000000000815260040180806020018281038252600f8152602001807f4d41524b45545f44495341424c4544000000000000000000000000000000000081525060200191505060405180910390fd5b6124c18c8c8c8c8c8c8c8c8c8c6149e5565b9150600054811461253a576040517f08c379a000000000000000000000000000000000000000000000000000000000815260040180806020018281038252601f8152602001807f5265656e7472616e637947756172643a207265656e7472616e742063616c6c0081525060200191505060405180910390fd5b509a9950505050505050505050565b7f25166116e36b48414096856a22ea40032193e38f65136c76738e306be6abd58760001b81565b670de0b6b3a764000081565b6000600c60020154905090565b6000600160009054906101000a900473ffffffffffffffffffffffffffffffffffffffff16905090565b6000600160009054906101000a900473ffffffffffffffffffffffffffffffffffffffff1673ffffffffffffffffffffffffffffffffffffffff166125f66136f4565b73ffffffffffffffffffffffffffffffffffffffff1614905090565b60058054600181600116156101000203166002900480601f0160208091040260200160405190810160405280929190818152602001828054600181600116156101000203166002900480156126a85780601f1061267d576101008083540402835291602001916126a8565b820191906000526020600020905b81548152906001019060200180831161268b57829003601f168201915b505050505081565b60006126ba6117b2565b73ffffffffffffffffffffffffffffffffffffffff16635c975abb6040518163ffffffff1660e01b815260040160206040518083038186803b1580156126ff57600080fd5b505afa158015612713573d6000803e3d6000fd5b505050506040513d602081101561272957600080fd5b8101908080519060200190929190505050156127ad576040517f08c379a00000000000000000000000000000000000000000000000000000000081526004018080602001828103825260108152602001807f45434f53595354454d5f5041555345440000000000000000000000000000000081525060200191505060405180910390fd5b60016000808282540192505081905550600080549050600a60009054906101000a900473ffffffffffffffffffffffffffffffffffffffff1673ffffffffffffffffffffffffffffffffffffffff16634d38f747306040518263ffffffff1660e01b8152600401808273ffffffffffffffffffffffffffffffffffffffff1673ffffffffffffffffffffffffffffffffffffffff16815260200191505060206040518083038186803b15801561286257600080fd5b505afa158015612876573d6000803e3d6000fd5b505050506040513d602081101561288c57600080fd5b810190808051906020019092919050505061290f576040517f08c379a000000000000000000000000000000000000000000000000000000000815260040180806020018281038252600f8152602001807f4d41524b45545f44495341424c4544000000000000000000000000000000000081525060200191505060405180910390fd5b61292861291a6136f4565b6129226136f4565b85614b7c565b915060005481146129a1576040517f08c379a000000000000000000000000000000000000000000000000000000000815260040180806020018281038252601f8152602001807f5265656e7472616e637947756172643a207265656e7472616e742063616c6c0081525060200191505060405180910390fd5b50919050565b60006129b16136f4565b600015156129bd611125565b73ffffffffffffffffffffffffffffffffffffffff1663fe575a87836040518263ffffffff1660e01b8152600401808273ffffffffffffffffffffffffffffffffffffffff1673ffffffffffffffffffffffffffffffffffffffff16815260200191505060206040518083038186803b158015612a3957600080fd5b505afa158015612a4d573d6000803e3d6000fd5b505050506040513d6020811015612a6357600080fd5b8101908080519060200190929190505050151514612ae9576040517f08c379a000000000000000000000000000000000000000000000000000000000815260040180806020018281038252600b8152602001807f424c41434b4c495354454400000000000000000000000000000000000000000081525060200191505060405180910390fd5b8360001515612af6611125565b73ffffffffffffffffffffffffffffffffffffffff1663fe575a87836040518263ffffffff1660e01b8152600401808273ffffffffffffffffffffffffffffffffffffffff1673ffffffffffffffffffffffffffffffffffffffff16815260200191505060206040518083038186803b158015612b7257600080fd5b505afa158015612b86573d6000803e3d6000fd5b505050506040513d6020811015612b9c57600080fd5b8101908080519060200190929190505050151514612c22576040517f08c379a000000000000000000000000000000000000000000000000000000000815260040180806020018281038252600b8152602001807f424c41434b4c495354454400000000000000000000000000000000000000000081525060200191505060405180910390fd5b612d00612c2d6136f4565b86612cfb876040518060400160405280601481526020017f414c4c4f57414e43455f42454c4f575f5a45524f00000000000000000000000081525060036000612c746136f4565b73ffffffffffffffffffffffffffffffffffffffff1673ffffffffffffffffffffffffffffffffffffffff16815260200190815260200160002060008c73ffffffffffffffffffffffffffffffffffffffff1673ffffffffffffffffffffffffffffffffffffffff1681526020019081526020016000205461426a9092919063ffffffff16565b6136fc565b60019250505092915050565b600060016000808282540192505081905550600080549050612d36612d2f6136f4565b8585613d9b565b600191506000548114612db1576040517f08c379a000000000000000000000000000000000000000000000000000000000815260040180806020018281038252601f8152602001807f5265656e7472616e637947756172643a207265656e7472616e742063616c6c0081525060200191505060405180910390fd5b5092915050565b6000612dc26117b2565b73ffffffffffffffffffffffffffffffffffffffff16635c975abb6040518163ffffffff1660e01b815260040160206040518083038186803b158015612e0757600080fd5b505afa158015612e1b573d6000803e3d6000fd5b505050506040513d6020811015612e3157600080fd5b810190808051906020019092919050505015612eb5576040517f08c379a00000000000000000000000000000000000000000000000000000000081526004018080602001828103825260108152602001807f45434f53595354454d5f5041555345440000000000000000000000000000000081525060200191505060405180910390fd5b60016000808282540192505081905550600080549050612edd8c8c8c8c8c8c8c8c8c8c614de5565b91506000548114612f56576040517f08c379a000000000000000000000000000000000000000000000000000000000815260040180806020018281038252601f8152602001807f5265656e7472616e637947756172643a207265656e7472616e742063616c6c0081525060200191505060405180910390fd5b509a9950505050505050505050565b6000612f6f6125b3565b612fe1576040517f08c379a00000000000000000000000000000000000000000000000000000000081526004018080602001828103825260208152602001807f4f776e61626c653a2063616c6c6572206973206e6f7420746865206f776e657281525060200191505060405180910390fd5b612fe96117b2565b73ffffffffffffffffffffffffffffffffffffffff16635c975abb6040518163ffffffff1660e01b815260040160206040518083038186803b15801561302e57600080fd5b505afa158015613042573d6000803e3d6000fd5b505050506040513d602081101561305857600080fd5b8101908080519060200190929190505050156130dc576040517f08c379a00000000000000000000000000000000000000000000000000000000081526004018080602001828103825260108152602001807f45434f53595354454d5f5041555345440000000000000000000000000000000081525060200191505060405180910390fd5b61310e6130e76136f4565b833073ffffffffffffffffffffffffffffffffffffffff16614f349092919063ffffffff16565b9050919050565b6000613139613123306120cc565b61312b611447565b6150aa90919063ffffffff16565b905090565b7f82e81310e0eab12a427992778464769ef831d801011489bc90ed3ef82f2cb3d160001b81565b600061316f6117b2565b73ffffffffffffffffffffffffffffffffffffffff16635c975abb6040518163ffffffff1660e01b815260040160206040518083038186803b1580156131b457600080fd5b505afa1580156131c8573d6000803e3d6000fd5b505050506040513d60208110156131de57600080fd5b810190808051906020019092919050505015613262576040517f08c379a00000000000000000000000000000000000000000000000000000000081526004018080602001828103825260108152602001807f45434f53595354454d5f5041555345440000000000000000000000000000000081525060200191505060405180910390fd5b600160008082825401925050819055506000805490506132936132836136f4565b61328b6136f4565b8560006150f4565b9150600054811461330c576040517f08c379a000000000000000000000000000000000000000000000000000000000815260040180806020018281038252601f8152602001807f5265656e7472616e637947756172643a207265656e7472616e742063616c6c0081525060200191505060405180910390fd5b50919050565b6000600360008473ffffffffffffffffffffffffffffffffffffffff1673ffffffffffffffffffffffffffffffffffffffff16815260200190815260200160002060008373ffffffffffffffffffffffffffffffffffffffff1673ffffffffffffffffffffffffffffffffffffffff16815260200190815260200160002054905092915050565b7f24e7162538bf7f86bd3180c9ee9f60f06db3bd66eb344ea3b00f69b84af5ddcf60001b81565b6000600c60030160008373ffffffffffffffffffffffffffffffffffffffff1673ffffffffffffffffffffffffffffffffffffffff168152602001908152602001600020549050919050565b6134146125b3565b613486576040517f08c379a00000000000000000000000000000000000000000000000000000000081526004018080602001828103825260208152602001807f4f776e61626c653a2063616c6c6572206973206e6f7420746865206f776e657281525060200191505060405180910390fd5b61348f816155a5565b50565b600b5481565b600a60009054906101000a900473ffffffffffffffffffffffffffffffffffffffff1681565b6134c66117b2565b73ffffffffffffffffffffffffffffffffffffffff16635c975abb6040518163ffffffff1660e01b815260040160206040518083038186803b15801561350b57600080fd5b505afa15801561351f573d6000803e3d6000fd5b505050506040513d602081101561353557600080fd5b8101908080519060200190929190505050156135b9576040517f08c379a00000000000000000000000000000000000000000000000000000000081526004018080602001828103825260108152602001807f45434f53595354454d5f5041555345440000000000000000000000000000000081525060200191505060405180910390fd5b600160008082825401925050819055506000805490506135d8856143b2565b613627600b547f22fa96956322098f6fd394e06f1b7e0f6930565923f9ad3d20802e9a2eb58fb160001b8d8d8d8d8d8d8d8d8d8d600c6156eb909c9b9a9998979695949392919063ffffffff16565b600087613635576000613657565b7fffffffffffffffffffffffffffffffffffffffffffffffffffffffffffffffff5b90506136648c8c836136fc565b61366f8c878961470e565b5060005481146136e7576040517f08c379a000000000000000000000000000000000000000000000000000000000815260040180806020018281038252601f8152602001807f5265656e7472616e637947756172643a207265656e7472616e742063616c6c0081525060200191505060405180910390fd5b5050505050505050505050565b600033905090565b600073ffffffffffffffffffffffffffffffffffffffff168373ffffffffffffffffffffffffffffffffffffffff16141561379f576040517f08c379a00000000000000000000000000000000000000000000000000000000081526004018080602001828103825260208152602001807f43414e4e4f545f415050524f56455f46524f4d5f5a45524f5f4144445245535381525060200191505060405180910390fd5b600073ffffffffffffffffffffffffffffffffffffffff168273ffffffffffffffffffffffffffffffffffffffff161415613842576040517f08c379a000000000000000000000000000000000000000000000000000000000815260040180806020018281038252601e8152602001807f43414e4e4f545f415050524f56455f544f5f5a45524f5f41444452455353000081525060200191505060405180910390fd5b61384a611125565b73ffffffffffffffffffffffffffffffffffffffff166391a9b1d261386d6136f4565b6040518263ffffffff1660e01b8152600401808273ffffffffffffffffffffffffffffffffffffffff1673ffffffffffffffffffffffffffffffffffffffff16815260200191505060006040518083038186803b1580156138cd57600080fd5b505afa1580156138e1573d6000803e3d6000fd5b505050506138ed611125565b73ffffffffffffffffffffffffffffffffffffffff166391a9b1d2846040518263ffffffff1660e01b8152600401808273ffffffffffffffffffffffffffffffffffffffff1673ffffffffffffffffffffffffffffffffffffffff16815260200191505060006040518083038186803b15801561396957600080fd5b505afa15801561397d573d6000803e3d6000fd5b50505050613989611125565b73ffffffffffffffffffffffffffffffffffffffff166391a9b1d2836040518263ffffffff1660e01b8152600401808273ffffffffffffffffffffffffffffffffffffffff1673ffffffffffffffffffffffffffffffffffffffff16815260200191505060006040518083038186803b158015613a0557600080fd5b505afa158015613a19573d6000803e3d6000fd5b5050505080600360008573ffffffffffffffffffffffffffffffffffffffff1673ffffffffffffffffffffffffffffffffffffffff16815260200190815260200160002060008473ffffffffffffffffffffffffffffffffffffffff1673ffffffffffffffffffffffffffffffffffffffff168152602001908152602001600020819055508173ffffffffffffffffffffffffffffffffffffffff168373ffffffffffffffffffffffffffffffffffffffff167f8c5be1e5ebec7d5bd14f71427d1e84f3dd0314c0f7b2291e5b200ac8c7c3b925836040518082815260200191505060405180910390a3505050565b6000808473ffffffffffffffffffffffffffffffffffffffff1663f77c47916040518163ffffffff1660e01b815260040160206040518083038186803b158015613b5157600080fd5b505afa158015613b65573d6000803e3d6000fd5b505050506040513d6020811015613b7b57600080fd5b810190808051906020019092919050505073ffffffffffffffffffffffffffffffffffffffff1663c37c4d7c866040518263ffffffff1660e01b8152600401808273ffffffffffffffffffffffffffffffffffffffff1673ffffffffffffffffffffffffffffffffffffffff16815260200191505060206040518083038186803b158015613c0857600080fd5b505afa158015613c1c573d6000803e3d6000fd5b505050506040513d6020811015613c3257600080fd5b81019080805190602001909291905050509050613c7084848373ffffffffffffffffffffffffffffffffffffffff166159949092919063ffffffff16565b60019150509392505050565b6000309050613c968260045461432a90919063ffffffff16565b600481905550613cee82600260008473ffffffffffffffffffffffffffffffffffffffff1673ffffffffffffffffffffffffffffffffffffffff1681526020019081526020016000205461432a90919063ffffffff16565b600260008373ffffffffffffffffffffffffffffffffffffffff1673ffffffffffffffffffffffffffffffffffffffff168152602001908152602001600020819055508073ffffffffffffffffffffffffffffffffffffffff16600073ffffffffffffffffffffffffffffffffffffffff167fddf252ad1be2c89b69c2b068fc378daa952ba7f163c4a11628f55a4df523b3ef846040518082815260200191505060405180910390a35050565b600073ffffffffffffffffffffffffffffffffffffffff168373ffffffffffffffffffffffffffffffffffffffff161415613e21576040517f08c379a0000000000000000000000000000000000000000000000000000000008152600401808060200182810382526021815260200180616dc16021913960400191505060405180910390fd5b600073ffffffffffffffffffffffffffffffffffffffff168273ffffffffffffffffffffffffffffffffffffffff161415613ec4576040517f08c379a000000000000000000000000000000000000000000000000000000000815260040180806020018281038252601f8152602001807f43414e4e4f545f5452414e534645525f544f5f5a45524f5f414444524553530081525060200191505060405180910390fd5b613ecc611125565b73ffffffffffffffffffffffffffffffffffffffff166391a9b1d2613eef6136f4565b6040518263ffffffff1660e01b8152600401808273ffffffffffffffffffffffffffffffffffffffff1673ffffffffffffffffffffffffffffffffffffffff16815260200191505060006040518083038186803b158015613f4f57600080fd5b505afa158015613f63573d6000803e3d6000fd5b50505050613f6f611125565b73ffffffffffffffffffffffffffffffffffffffff166391a9b1d2846040518263ffffffff1660e01b8152600401808273ffffffffffffffffffffffffffffffffffffffff1673ffffffffffffffffffffffffffffffffffffffff16815260200191505060006040518083038186803b158015613feb57600080fd5b505afa158015613fff573d6000803e3d6000fd5b5050505061400b611125565b73ffffffffffffffffffffffffffffffffffffffff166391a9b1d2836040518263ffffffff1660e01b8152600401808273ffffffffffffffffffffffffffffffffffffffff1673ffffffffffffffffffffffffffffffffffffffff16815260200191505060006040518083038186803b15801561408757600080fd5b505afa15801561409b573d6000803e3d6000fd5b50505050614128816040518060400160405280601881526020017f5452414e534645525f455843454544535f42414c414e43450000000000000000815250600260008773ffffffffffffffffffffffffffffffffffffffff1673ffffffffffffffffffffffffffffffffffffffff1681526020019081526020016000205461426a9092919063ffffffff16565b600260008573ffffffffffffffffffffffffffffffffffffffff1673ffffffffffffffffffffffffffffffffffffffff168152602001908152602001600020819055506141bd81600260008573ffffffffffffffffffffffffffffffffffffffff1673ffffffffffffffffffffffffffffffffffffffff1681526020019081526020016000205461432a90919063ffffffff16565b600260008473ffffffffffffffffffffffffffffffffffffffff1673ffffffffffffffffffffffffffffffffffffffff168152602001908152602001600020819055508173ffffffffffffffffffffffffffffffffffffffff168373ffffffffffffffffffffffffffffffffffffffff167fddf252ad1be2c89b69c2b068fc378daa952ba7f163c4a11628f55a4df523b3ef836040518082815260200191505060405180910390a3505050565b6000838311158290614317576040517f08c379a00000000000000000000000000000000000000000000000000000000081526004018080602001828103825283818151815260200191508051906020019080838360005b838110156142dc5780820151818401526020810190506142c1565b50505050905090810190601f1680156143095780820380516001836020036101000a031916815260200191505b509250505060405180910390fd5b5060008385039050809150509392505050565b6000808284019050838110156143a8576040517f08c379a000000000000000000000000000000000000000000000000000000000815260040180806020018281038252601b8152602001807f536166654d6174683a206164646974696f6e206f766572666c6f77000000000081525060200191505060405180910390fd5b8091505092915050565b600073ffffffffffffffffffffffffffffffffffffffff168173ffffffffffffffffffffffffffffffffffffffff1614614483576143ee611125565b73ffffffffffffffffffffffffffffffffffffffff166391a9b1d2826040518263ffffffff1660e01b8152600401808273ffffffffffffffffffffffffffffffffffffffff1673ffffffffffffffffffffffffffffffffffffffff16815260200191505060006040518083038186803b15801561446a57600080fd5b505afa15801561447e573d6000803e3d6000fd5b505050505b50565b60008c8c8c8c8c8c8c8c8c604051602001808981526020018873ffffffffffffffffffffffffffffffffffffffff1673ffffffffffffffffffffffffffffffffffffffff1681526020018773ffffffffffffffffffffffffffffffffffffffff1673ffffffffffffffffffffffffffffffffffffffff1681526020018681526020018581526020018481526020018381526020018273ffffffffffffffffffffffffffffffffffffffff1673ffffffffffffffffffffffffffffffffffffffff168152602001985050505050505050506040516020818303038152906040528051906020012060405160200180807f190100000000000000000000000000000000000000000000000000000000000081525060020183815260200182815260200192505050604051602081830303815290604052805190602001209050600073ffffffffffffffffffffffffffffffffffffffff168b73ffffffffffffffffffffffffffffffffffffffff161415614649576040517f08c379a0000000000000000000000000000000000000000000000000000000008152600401808060200182810382526021815260200180616dc16021913960400191505060405180910390fd5b600073ffffffffffffffffffffffffffffffffffffffff168a73ffffffffffffffffffffffffffffffffffffffff1614156146ec576040517f08c379a000000000000000000000000000000000000000000000000000000000815260040180806020018281038252601f8152602001807f43414e4e4f545f5452414e534645525f544f5f5a45524f5f414444524553530081525060200191505060405180910390fd5b6146fe8e828d8c8c8b8b8b8b8b615a65565b5050505050505050505050505050565b60008111156148065780614721846120cc565b1015614795576040517f08c379a000000000000000000000000000000000000000000000000000000000815260040180806020018281038252601c8152602001807f494e53554646494349454e545f42414c414e43455f464f525f4645450000000081525060200191505060405180910390fd5b6147a0838383613d9b565b8173ffffffffffffffffffffffffffffffffffffffff168373ffffffffffffffffffffffffffffffffffffffff167fccde774d895c5b17def8492294ac28f98828810b74de386b78559a17a3105765836040518082815260200191505060405180910390a35b505050565b6000428360010154106148245782600001549050614889565b600061487484600101546040518060400160405280601781526020017f494e56414c49445f424c4f434b5f54494d455354414d500000000000000000008152504261426a9092919063ffffffff16565b905061488584600001548483615e27565b9150505b92915050565b600030905061491d826040518060400160405280601481526020017f4255524e5f455843454544535f42414c414e4345000000000000000000000000815250600260008573ffffffffffffffffffffffffffffffffffffffff1673ffffffffffffffffffffffffffffffffffffffff1681526020019081526020016000205461426a9092919063ffffffff16565b600260008373ffffffffffffffffffffffffffffffffffffffff1673ffffffffffffffffffffffffffffffffffffffff16815260200190815260200160002081905550614975826004546150aa90919063ffffffff16565b600481905550600073ffffffffffffffffffffffffffffffffffffffff168173ffffffffffffffffffffffffffffffffffffffff167fddf252ad1be2c89b69c2b068fc378daa952ba7f163c4a11628f55a4df523b3ef846040518082815260200191505060405180910390a35050565b60006149f0856143b2565b614a3f600b547f82e81310e0eab12a427992778464769ef831d801011489bc90ed3ef82f2cb3d160001b8d8d8d8d8d8d8d8d8d8d600c615ea6909c9b9a9998979695949392919063ffffffff16565b6000614a4c8c308a614b7c565b905086811015614ac4576040517f08c379a000000000000000000000000000000000000000000000000000000000815260040180806020018281038252600d8152602001807f4645455f544f4f5f4c415247450000000000000000000000000000000000000081525060200191505060405180910390fd5b6000614ad988836150aa90919063ffffffff16565b9050600854811015614b53576040517f08c379a00000000000000000000000000000000000000000000000000000000081526004018080602001828103825260188152602001807f494e53554646494349454e545f4d494e545f414d4f554e54000000000000000081525060200191505060405180910390fd5b614b5e308d83613d9b565b614b6930888a61470e565b80925050509a9950505050505050505050565b6000614b86611125565b73ffffffffffffffffffffffffffffffffffffffff166391a9b1d2856040518263ffffffff1660e01b8152600401808273ffffffffffffffffffffffffffffffffffffffff1673ffffffffffffffffffffffffffffffffffffffff16815260200191505060006040518083038186803b158015614c0257600080fd5b505afa158015614c16573d6000803e3d6000fd5b505050506000614c46600c3073ffffffffffffffffffffffffffffffffffffffff1661614b90919063ffffffff16565b90506000614c6782670de0b6b3a7640000866162d99092919063ffffffff16565b905080614c73306120cc565b1015614ce7576040517f08c379a000000000000000000000000000000000000000000000000000000000815260040180806020018281038252601a8152602001807f494e53554646494349454e545f444d4d5f4c495155494449545900000000000081525060200191505060405180910390fd5b614cf18685616309565b614cfc308683613d9b565b8473ffffffffffffffffffffffffffffffffffffffff168673ffffffffffffffffffffffffffffffffffffffff167fab8530f87dc9b59234c4623bf917212bb2536d647574c8e7e5da92c2ede0c9f8836040518082815260200191505060405180910390a3600854811015614dd9576040517f08c379a00000000000000000000000000000000000000000000000000000000081526004018080602001828103825260188152602001807f494e53554646494349454e545f4d494e545f414d4f554e54000000000000000081525060200191505060405180910390fd5b80925050509392505050565b6000614df0856143b2565b614e3f600b547f24e7162538bf7f86bd3180c9ee9f60f06db3bd66eb344ea3b00f69b84af5ddcf60001b8d8d8d8d8d8d8d8d8d8d600c616419909c9b9a9998979695949392919063ffffffff16565b6000614e8b876040518060400160405280600d81526020017f4645455f544f4f5f4c41524745000000000000000000000000000000000000008152508a61426a9092919063ffffffff16565b9050600954811015614f05576040517f08c379a000000000000000000000000000000000000000000000000000000000815260040180806020018281038252601a8152602001807f494e53554646494349454e545f52454445454d5f414d4f554e5400000000000081525060200191505060405180910390fd5b6000614f148d8d8460006150f4565b9050614f218d888a61470e565b80925050509a9950505050505050505050565b6000808473ffffffffffffffffffffffffffffffffffffffff1663f77c47916040518163ffffffff1660e01b815260040160206040518083038186803b158015614f7d57600080fd5b505afa158015614f91573d6000803e3d6000fd5b505050506040513d6020811015614fa757600080fd5b810190808051906020019092919050505073ffffffffffffffffffffffffffffffffffffffff1663c37c4d7c866040518263ffffffff1660e01b8152600401808273ffffffffffffffffffffffffffffffffffffffff1673ffffffffffffffffffffffffffffffffffffffff16815260200191505060206040518083038186803b15801561503457600080fd5b505afa158015615048573d6000803e3d6000fd5b505050506040513d602081101561505e57600080fd5b8101908080519060200190929190505050905061509e8486858473ffffffffffffffffffffffffffffffffffffffff166166be909392919063ffffffff16565b60019150509392505050565b60006150ec83836040518060400160405280601e81526020017f536166654d6174683a207375627472616374696f6e206f766572666c6f77000081525061426a565b905092915050565b60006150fe611125565b73ffffffffffffffffffffffffffffffffffffffff166391a9b1d2856040518263ffffffff1660e01b8152600401808273ffffffffffffffffffffffffffffffffffffffff1673ffffffffffffffffffffffffffffffffffffffff16815260200191505060006040518083038186803b15801561517a57600080fd5b505afa15801561518e573d6000803e3d6000fd5b5050505060006151be600c3073ffffffffffffffffffffffffffffffffffffffff1661614b90919063ffffffff16565b905060006151df82670de0b6b3a7640000876167c49092919063ffffffff16565b905060003073ffffffffffffffffffffffffffffffffffffffff1663f77c47916040518163ffffffff1660e01b815260040160206040518083038186803b15801561522957600080fd5b505afa15801561523d573d6000803e3d6000fd5b505050506040513d602081101561525357600080fd5b810190808051906020019092919050505073ffffffffffffffffffffffffffffffffffffffff1663c37c4d7c306040518263ffffffff1660e01b8152600401808273ffffffffffffffffffffffffffffffffffffffff1673ffffffffffffffffffffffffffffffffffffffff16815260200191505060206040518083038186803b1580156152e057600080fd5b505afa1580156152f4573d6000803e3d6000fd5b505050506040513d602081101561530a57600080fd5b81019080805190602001909291905050509050818173ffffffffffffffffffffffffffffffffffffffff166370a08231306040518263ffffffff1660e01b8152600401808273ffffffffffffffffffffffffffffffffffffffff1673ffffffffffffffffffffffffffffffffffffffff16815260200191505060206040518083038186803b15801561539b57600080fd5b505afa1580156153af573d6000803e3d6000fd5b505050506040513d60208110156153c557600080fd5b8101908080519060200190929190505050101561542d576040517f08c379a0000000000000000000000000000000000000000000000000000000008152600401808060200182810382526021815260200180616d556021913960400191505060405180910390fd5b84156154a557600061548f876040518060400160405280601681526020017f494e53554646494349454e545f414c4c4f57414e4345000000000000000000008152506154808c61547b6136f4565b613312565b61426a9092919063ffffffff16565b90506154a38961549d6136f4565b836136fc565b505b6154b0883088613d9b565b6154ba87836167f4565b8673ffffffffffffffffffffffffffffffffffffffff168873ffffffffffffffffffffffffffffffffffffffff167fd12200efa34901b99367694174c3b0d32c99585fdf37c7c26892136ddd0836d9886040518082815260200191505060405180910390a3600954861015615597576040517f08c379a000000000000000000000000000000000000000000000000000000000815260040180806020018281038252601a8152602001807f494e53554646494349454e545f52454445454d5f414d4f554e5400000000000081525060200191505060405180910390fd5b819350505050949350505050565b600073ffffffffffffffffffffffffffffffffffffffff168173ffffffffffffffffffffffffffffffffffffffff16141561562b576040517f08c379a0000000000000000000000000000000000000000000000000000000008152600401808060200182810382526026815260200180616d2f6026913960400191505060405180910390fd5b8073ffffffffffffffffffffffffffffffffffffffff16600160009054906101000a900473ffffffffffffffffffffffffffffffffffffffff1673ffffffffffffffffffffffffffffffffffffffff167f8be0079c531659141344cd1fd0a4f28419497f9722a3daafe3b4186f6b6457e060405160405180910390a380600160006101000a81548173ffffffffffffffffffffffffffffffffffffffff021916908373ffffffffffffffffffffffffffffffffffffffff16021790555050565b60008c8c8c8c8c8c8c8c8c604051602001808981526020018873ffffffffffffffffffffffffffffffffffffffff1673ffffffffffffffffffffffffffffffffffffffff1681526020018773ffffffffffffffffffffffffffffffffffffffff1673ffffffffffffffffffffffffffffffffffffffff168152602001868152602001858152602001841515151581526020018381526020018273ffffffffffffffffffffffffffffffffffffffff1673ffffffffffffffffffffffffffffffffffffffff168152602001985050505050505050506040516020818303038152906040528051906020012060405160200180807f190100000000000000000000000000000000000000000000000000000000000081525060020183815260200182815260200192505050604051602081830303815290604052805190602001209050600073ffffffffffffffffffffffffffffffffffffffff168b73ffffffffffffffffffffffffffffffffffffffff1614156158cf576040517f08c379a00000000000000000000000000000000000000000000000000000000081526004018080602001828103825260208152602001807f43414e4e4f545f415050524f56455f46524f4d5f5a45524f5f4144445245535381525060200191505060405180910390fd5b600073ffffffffffffffffffffffffffffffffffffffff168a73ffffffffffffffffffffffffffffffffffffffff161415615972576040517f08c379a000000000000000000000000000000000000000000000000000000000815260040180806020018281038252601e8152602001807f43414e4e4f545f415050524f56455f544f5f5a45524f5f41444452455353000081525060200191505060405180910390fd5b6159848e828d8c8c8b8b8b8b8b615a65565b5050505050505050505050505050565b615a60838473ffffffffffffffffffffffffffffffffffffffff1663a9059cbb905060e01b8484604051602401808373ffffffffffffffffffffffffffffffffffffffff1673ffffffffffffffffffffffffffffffffffffffff16815260200182815260200192505050604051602081830303815290604052907bffffffffffffffffffffffffffffffffffffffffffffffffffffffff19166020820180517bffffffffffffffffffffffffffffffffffffffffffffffffffffffff8381831617835250505050616902565b505050565b60008a60030160008a73ffffffffffffffffffffffffffffffffffffffff1673ffffffffffffffffffffffffffffffffffffffff16815260200190815260200160002054905060018a85858560405160008152602001604052604051808581526020018460ff1660ff1681526020018381526020018281526020019450505050506020604051602081039080840390855afa158015615b08573d6000803e3d6000fd5b5050506020604051035173ffffffffffffffffffffffffffffffffffffffff168973ffffffffffffffffffffffffffffffffffffffff1614615bb2576040517f08c379a00000000000000000000000000000000000000000000000000000000081526004018080602001828103825260118152602001807f494e56414c49445f5349474e415455524500000000000000000000000000000081525060200191505060405180910390fd5b6000871480615bc15750864211155b615c33576040517f08c379a000000000000000000000000000000000000000000000000000000000815260040180806020018281038252600f8152602001807f524551554553545f45585049524544000000000000000000000000000000000081525060200191505060405180910390fd5b808814615ca8576040517f08c379a000000000000000000000000000000000000000000000000000000000815260040180806020018281038252600d8152602001807f494e56414c49445f4e4f4e43450000000000000000000000000000000000000081525060200191505060405180910390fd5b6000861115615d5557600073ffffffffffffffffffffffffffffffffffffffff168573ffffffffffffffffffffffffffffffffffffffff161415615d54576040517f08c379a00000000000000000000000000000000000000000000000000000000081526004018080602001828103825260138152602001807f494e56414c49445f4645455f414444524553530000000000000000000000000081525060200191505060405180910390fd5b5b8473ffffffffffffffffffffffffffffffffffffffff168973ffffffffffffffffffffffffffffffffffffffff167fef26afcebac865f663cc730fa63414a504bfbee53bcbeeaa4407d040b8c31963838a8a60405180848152602001838152602001828152602001935050505060405180910390a360018b60030160008b73ffffffffffffffffffffffffffffffffffffffff1673ffffffffffffffffffffffffffffffffffffffff168152602001908152602001600020600082825401925050819055505050505050505050505050565b600080615e6d615e566301e13380615e488688616b4d90919063ffffffff16565b616bd390919063ffffffff16565b670de0b6b3a764000061432a90919063ffffffff16565b9050615e9c670de0b6b3a7640000615e8e8388616b4d90919063ffffffff16565b616bd390919063ffffffff16565b9150509392505050565b60008c8c8c8c8c8c8c8c8c604051602001808981526020018873ffffffffffffffffffffffffffffffffffffffff1673ffffffffffffffffffffffffffffffffffffffff1681526020018773ffffffffffffffffffffffffffffffffffffffff1673ffffffffffffffffffffffffffffffffffffffff1681526020018681526020018581526020018481526020018381526020018273ffffffffffffffffffffffffffffffffffffffff1673ffffffffffffffffffffffffffffffffffffffff168152602001985050505050505050506040516020818303038152906040528051906020012060405160200180807f190100000000000000000000000000000000000000000000000000000000000081525060020183815260200182815260200192505050604051602081830303815290604052805190602001209050600073ffffffffffffffffffffffffffffffffffffffff168b73ffffffffffffffffffffffffffffffffffffffff161415616086576040517f08c379a000000000000000000000000000000000000000000000000000000000815260040180806020018281038252601d8152602001807f43414e4e4f545f4d494e545f46524f4d5f5a45524f5f4144445245535300000081525060200191505060405180910390fd5b600073ffffffffffffffffffffffffffffffffffffffff168a73ffffffffffffffffffffffffffffffffffffffff161415616129576040517f08c379a000000000000000000000000000000000000000000000000000000000815260040180806020018281038252601b8152602001807f43414e4e4f545f4d494e545f544f5f5a45524f5f41444452455353000000000081525060200191505060405180910390fd5b61613b8e828d8c8c8b8b8b8b8b615a65565b5050505050505050505050505050565b6000808260000154905060008473ffffffffffffffffffffffffffffffffffffffff1663f77c47916040518163ffffffff1660e01b815260040160206040518083038186803b15801561619d57600080fd5b505afa1580156161b1573d6000803e3d6000fd5b505050506040513d60208110156161c757600080fd5b810190808051906020019092919050505073ffffffffffffffffffffffffffffffffffffffff1663af4b4cc5866040518263ffffffff1660e01b8152600401808273ffffffffffffffffffffffffffffffffffffffff1673ffffffffffffffffffffffffffffffffffffffff16815260200191505060206040518083038186803b15801561625457600080fd5b505afa158015616268573d6000803e3d6000fd5b505050506040513d602081101561627e57600080fd5b81019080805190602001909291905050509050600061629d858361480b565b90508281146162cc574285600101819055504385600201819055508085600001819055508093505050506162d3565b8093505050505b92915050565b6000616300836162f28487616b4d90919063ffffffff16565b616bd390919063ffffffff16565b90509392505050565b6000600a60009054906101000a900473ffffffffffffffffffffffffffffffffffffffff1673ffffffffffffffffffffffffffffffffffffffff1663c37c4d7c306040518263ffffffff1660e01b8152600401808273ffffffffffffffffffffffffffffffffffffffff1673ffffffffffffffffffffffffffffffffffffffff16815260200191505060206040518083038186803b1580156163aa57600080fd5b505afa1580156163be573d6000803e3d6000fd5b505050506040513d60208110156163d457600080fd5b810190808051906020019092919050505090506164148330848473ffffffffffffffffffffffffffffffffffffffff166166be909392919063ffffffff16565b505050565b60008c8c8c8c8c8c8c8c8c604051602001808981526020018873ffffffffffffffffffffffffffffffffffffffff1673ffffffffffffffffffffffffffffffffffffffff1681526020018773ffffffffffffffffffffffffffffffffffffffff1673ffffffffffffffffffffffffffffffffffffffff1681526020018681526020018581526020018481526020018381526020018273ffffffffffffffffffffffffffffffffffffffff1673ffffffffffffffffffffffffffffffffffffffff168152602001985050505050505050506040516020818303038152906040528051906020012060405160200180807f190100000000000000000000000000000000000000000000000000000000000081525060020183815260200182815260200192505050604051602081830303815290604052805190602001209050600073ffffffffffffffffffffffffffffffffffffffff168b73ffffffffffffffffffffffffffffffffffffffff1614156165f9576040517f08c379a000000000000000000000000000000000000000000000000000000000815260040180806020018281038252601f8152602001807f43414e4e4f545f52454445454d5f46524f4d5f5a45524f5f414444524553530081525060200191505060405180910390fd5b600073ffffffffffffffffffffffffffffffffffffffff168a73ffffffffffffffffffffffffffffffffffffffff16141561669c576040517f08c379a000000000000000000000000000000000000000000000000000000000815260040180806020018281038252601d8152602001807f43414e4e4f545f52454445454d5f544f5f5a45524f5f4144445245535300000081525060200191505060405180910390fd5b6166ae8e828d8c8c8b8b8b8b8b615a65565b5050505050505050505050505050565b6167be848573ffffffffffffffffffffffffffffffffffffffff166323b872dd905060e01b858585604051602401808473ffffffffffffffffffffffffffffffffffffffff1673ffffffffffffffffffffffffffffffffffffffff1681526020018373ffffffffffffffffffffffffffffffffffffffff1673ffffffffffffffffffffffffffffffffffffffff1681526020018281526020019350505050604051602081830303815290604052907bffffffffffffffffffffffffffffffffffffffffffffffffffffffff19166020820180517bffffffffffffffffffffffffffffffffffffffffffffffffffffffff8381831617835250505050616902565b50505050565b60006167eb826167dd8587616b4d90919063ffffffff16565b616bd390919063ffffffff16565b90509392505050565b6000600a60009054906101000a900473ffffffffffffffffffffffffffffffffffffffff1673ffffffffffffffffffffffffffffffffffffffff1663c37c4d7c306040518263ffffffff1660e01b8152600401808273ffffffffffffffffffffffffffffffffffffffff1673ffffffffffffffffffffffffffffffffffffffff16815260200191505060206040518083038186803b15801561689557600080fd5b505afa1580156168a9573d6000803e3d6000fd5b505050506040513d60208110156168bf57600080fd5b810190808051906020019092919050505090506168fd83838373ffffffffffffffffffffffffffffffffffffffff166159949092919063ffffffff16565b505050565b6169218273ffffffffffffffffffffffffffffffffffffffff16616c1d565b616993576040517f08c379a000000000000000000000000000000000000000000000000000000000815260040180806020018281038252601f8152602001807f5361666545524332303a2063616c6c20746f206e6f6e2d636f6e74726163740081525060200191505060405180910390fd5b600060608373ffffffffffffffffffffffffffffffffffffffff16836040518082805190602001908083835b602083106169e257805182526020820191506020810190506020830392506169bf565b6001836020036101000a0380198251168184511680821785525050505050509050019150506000604051808303816000865af19150503d8060008114616a44576040519150601f19603f3d011682016040523d82523d6000602084013e616a49565b606091505b509150915081616ac1576040517f08c379a00000000000000000000000000000000000000000000000000000000081526004018080602001828103825260208152602001807f5361666545524332303a206c6f772d6c6576656c2063616c6c206661696c656481525060200191505060405180910390fd5b600081511115616b4757808060200190516020811015616ae057600080fd5b8101908080519060200190929190505050616b46576040517f08c379a000000000000000000000000000000000000000000000000000000000815260040180806020018281038252602a815260200180616d97602a913960400191505060405180910390fd5b5b50505050565b600080831415616b605760009050616bcd565b6000828402905082848281616b7157fe5b0414616bc8576040517f08c379a0000000000000000000000000000000000000000000000000000000008152600401808060200182810382526021815260200180616d766021913960400191505060405180910390fd5b809150505b92915050565b6000616c1583836040518060400160405280601a81526020017f536166654d6174683a206469766973696f6e206279207a65726f000000000000815250616c68565b905092915050565b60008060007fc5d2460186f7233c927e7db2dcc703c0e500b653ca82273b7bfad8045d85a47060001b9050833f91506000801b8214158015616c5f5750808214155b92505050919050565b60008083118290616d14576040517f08c379a00000000000000000000000000000000000000000000000000000000081526004018080602001828103825283818151815260200191508051906020019080838360005b83811015616cd9578082015181840152602081019050616cbe565b50505050905090810190601f168015616d065780820380516001836020036101000a031916815260200191505b509250505060405180910390fd5b506000838581616d2057fe5b04905080915050939250505056fe4f776e61626c653a206e6577206f776e657220697320746865207a65726f2061646472657373494e53554646494349454e545f554e4445524c59494e475f4c4951554944495459536166654d6174683a206d756c7469706c69636174696f6e206f766572666c6f775361666545524332303a204552433230206f7065726174696f6e20646964206e6f74207375636365656443414e4e4f545f5452414e534645525f46524f4d5f5a45524f5f41444452455353a265627a7a723158203b945c4d3e40ca0cc4a494369aaf0eead625e899703984095aa48dd2c4e01d7964736f6c63430005100032454950373132446f6d61696e28737472696e67206e616d652c737472696e672076657273696f6e2c75696e7432353620636861696e49642c6164647265737320766572696679696e67436f6e747261637429",
    "source": "pragma solidity ^0.5.12;\n\nimport \"../../../node_modules/@openzeppelin/contracts/token/ERC20/SafeERC20.sol\";\n\nimport \"../libs/DmmTokenLibrary.sol\";\nimport \"../interfaces/IDmmController.sol\";\nimport \"../interfaces/IDmmToken.sol\";\n\nimport \"../../utils/Blacklistable.sol\";\nimport \"../../utils/ERC20.sol\";\n\ncontract DmmToken is ERC20, IDmmToken, CommonConstants {\n\n    using SafeERC20 for IERC20;\n    using SafeMath for uint;\n    using DmmTokenLibrary for *;\n\n    /***************************\n     * Public Constant Fields\n     */\n\n    // bytes32 public constant PERMIT_TYPE_HASH = keccak256(\"Permit(address holder,address spender,uint256 nonce,uint256 expiry,bool allowed,uint256 feeAmount,address feeRecipient)\");\n    bytes32 public constant PERMIT_TYPE_HASH = 0x22fa96956322098f6fd394e06f1b7e0f6930565923f9ad3d20802e9a2eb58fb1;\n\n    // bytes32 public constant TRANSFER_TYPE_HASH = keccak256(\"Transfer(address owner,address recipient,uint256 nonce,uint256 expiry,uint amount,uint256 feeAmount,address feeRecipient)\");\n    bytes32 public constant TRANSFER_TYPE_HASH = 0x25166116e36b48414096856a22ea40032193e38f65136c76738e306be6abd587;\n\n    // bytes32 public constant MINT_TYPE_HASH = keccak256(\"Mint(address owner,address recipient,uint256 nonce,uint256 expiry,uint256 amount,uint256 feeAmount,address feeRecipient)\");\n    bytes32 public constant MINT_TYPE_HASH = 0x82e81310e0eab12a427992778464769ef831d801011489bc90ed3ef82f2cb3d1;\n\n    // bytes32 public constant REDEEM_TYPE_HASH = keccak256(\"Redeem(address owner,address recipient,uint256 nonce,uint256 expiry,uint256 amount,uint256 feeAmount,address feeRecipient)\");\n    bytes32 public constant REDEEM_TYPE_HASH = 0x24e7162538bf7f86bd3180c9ee9f60f06db3bd66eb344ea3b00f69b84af5ddcf;\n\n    /*****************\n     * Public Fields\n     */\n\n    string public symbol;\n    string public name;\n    uint8 public decimals;\n    uint public minMintAmount;\n    uint public minRedeemAmount;\n\n    IDmmController public controller;\n    bytes32 public domainSeparator;\n\n    /*****************\n     * Private Fields\n     */\n\n    DmmTokenLibrary.Storage private _storage;\n\n    constructor(\n        string memory _symbol,\n        string memory _name,\n        uint8 _decimals,\n        uint _minMintAmount,\n        uint _minRedeemAmount,\n        uint _totalSupply,\n        address _controller\n    ) public {\n        symbol = _symbol;\n        name = _name;\n        decimals = _decimals;\n        minMintAmount = _minMintAmount;\n        minRedeemAmount = _minRedeemAmount;\n        controller = IDmmController(_controller);\n\n        uint256 chainId;\n        assembly {chainId := chainid()}\n\n        domainSeparator = keccak256(abi.encode(\n                keccak256(\"EIP712Domain(string name,string version,uint256 chainId,address verifyingContract)\"),\n                keccak256(bytes(name)),\n                keccak256(bytes(/* version */ \"1\")),\n                chainId,\n                address(this)\n            ));\n\n        _storage = DmmTokenLibrary.Storage({\n            exchangeRate : EXCHANGE_RATE_BASE_RATE,\n            exchangeRateLastUpdatedTimestamp : block.timestamp,\n            exchangeRateLastUpdatedBlockNumber : block.number\n            });\n\n        mintToThisContract(_totalSupply);\n    }\n\n    /********************\n     * Modifiers\n     */\n\n    modifier isNotDisabled {\n        require(controller.isMarketEnabledByDmmTokenAddress(address(this)), \"MARKET_DISABLED\");\n        _;\n    }\n\n    /********************\n     * Public Functions\n     */\n\n    function() payable external {\n        revert(\"NO_DEFAULT_FUNCTION\");\n    }\n\n    function pausable() public view returns (address) {\n        return address(controller);\n    }\n\n    function blacklistable() public view returns (Blacklistable) {\n        return controller.blacklistable();\n    }\n\n    function activeSupply() public view returns (uint) {\n        return totalSupply().sub(balanceOf(address(this)));\n    }\n\n    function increaseTotalSupply(uint amount) public onlyOwner whenNotPaused {\n        uint oldTotalSupply = _totalSupply;\n        mintToThisContract(amount);\n        emit TotalSupplyIncreased(oldTotalSupply, _totalSupply);\n    }\n\n    function decreaseTotalSupply(uint amount) public onlyOwner whenNotPaused {\n        // If there's underflow, throw the specified error\n        require(balanceOf(address(this)) >= amount, \"TOO_MUCH_ACTIVE_SUPPLY\");\n        uint oldTotalSupply = _totalSupply;\n        burnFromThisContract(amount);\n        emit TotalSupplyDecreased(oldTotalSupply, _totalSupply);\n    }\n\n    function depositUnderlying(uint underlyingAmount) onlyOwner whenNotPaused public returns (bool) {\n        return this._depositUnderlying(_msgSender(), underlyingAmount);\n    }\n\n    function withdrawUnderlying(uint underlyingAmount) onlyOwner whenNotPaused public returns (bool) {\n        return this._withdrawUnderlying(_msgSender(), underlyingAmount);\n    }\n\n    function getCurrentExchangeRate() public view returns (uint) {\n        return _storage.getCurrentExchangeRate(controller.getInterestRateByDmmTokenAddress(address(this)));\n    }\n\n    function exchangeRateLastUpdatedTimestamp() public view returns (uint) {\n        return _storage.exchangeRateLastUpdatedTimestamp;\n    }\n\n    function exchangeRateLastUpdatedBlockNumber() public view returns (uint) {\n        return _storage.exchangeRateLastUpdatedBlockNumber;\n    }\n\n    function nonceOf(address owner) public view returns (uint) {\n        return _storage.nonces[owner];\n    }\n\n    function mint(\n        uint underlyingAmount\n    )\n    whenNotPaused\n    nonReentrant\n    isNotDisabled\n    public returns (uint) {\n        return _mint(_msgSender(), _msgSender(), underlyingAmount);\n    }\n\n    function transferUnderlyingIn(address owner, uint underlyingAmount) internal {\n        address underlyingToken = controller.getUnderlyingTokenForDmm(address(this));\n        IERC20(underlyingToken).safeTransferFrom(owner, address(this), underlyingAmount);\n    }\n\n    function transferUnderlyingOut(address recipient, uint underlyingAmount) internal {\n        address underlyingToken = controller.getUnderlyingTokenForDmm(address(this));\n        IERC20(underlyingToken).safeTransfer(recipient, underlyingAmount);\n    }\n\n    function mintFromGaslessRequest(\n        address owner,\n        address recipient,\n        uint nonce,\n        uint expiry,\n        uint underlyingAmount,\n        uint feeAmount,\n        address feeRecipient,\n        uint8 v,\n        bytes32 r,\n        bytes32 s\n    )\n    whenNotPaused\n    nonReentrant\n    isNotDisabled\n    public returns (uint) {\n        return _mintFromGaslessRequest(\n            owner,\n            recipient,\n            nonce,\n            expiry,\n            underlyingAmount,\n            feeAmount,\n            feeRecipient,\n            v,\n            r,\n            s\n        );\n    }\n\n    function redeem(\n        uint amount\n    )\n    whenNotPaused\n    nonReentrant\n    public returns (uint) {\n        return _redeem(_msgSender(), _msgSender(), amount, /* shouldUseAllowance */ false);\n    }\n\n    function redeemFromGaslessRequest(\n        address owner,\n        address recipient,\n        uint nonce,\n        uint expiry,\n        uint amount,\n        uint feeAmount,\n        address feeRecipient,\n        uint8 v,\n        bytes32 r,\n        bytes32 s\n    )\n    whenNotPaused\n    nonReentrant\n    public returns (uint) {\n        return _redeemFromGaslessRequest(\n            owner,\n            recipient,\n            nonce,\n            expiry,\n            amount,\n            feeAmount,\n            feeRecipient,\n            v,\n            r,\n            s\n        );\n    }\n\n    function permit(\n        address owner,\n        address spender,\n        uint nonce,\n        uint expiry,\n        bool allowed,\n        uint feeAmount,\n        address feeRecipient,\n        uint8 v,\n        bytes32 r,\n        bytes32 s\n    )\n    whenNotPaused\n    nonReentrant\n    public {\n        checkGaslessBlacklist(feeRecipient);\n\n        _storage.validateOffChainPermit(domainSeparator, PERMIT_TYPE_HASH, owner, spender, nonce, expiry, allowed, feeAmount, feeRecipient, v, r, s);\n\n        uint wad = allowed ? uint(- 1) : 0;\n        _approve(owner, spender, wad);\n\n        doFeeTransferForDmmIfNecessary(owner, feeRecipient, feeAmount);\n    }\n\n    function transferFromGaslessRequest(\n        address owner,\n        address recipient,\n        uint nonce,\n        uint expiry,\n        uint amount,\n        uint feeAmount,\n        address feeRecipient,\n        uint8 v,\n        bytes32 r,\n        bytes32 s\n    )\n    whenNotPaused\n    nonReentrant\n    public {\n        checkGaslessBlacklist(feeRecipient);\n\n        _storage.validateOffChainTransfer(domainSeparator, TRANSFER_TYPE_HASH, owner, recipient, nonce, expiry, amount, feeAmount, feeRecipient, v, r, s);\n\n        uint amountLessFee = amount.sub(feeAmount, \"FEE_TOO_LARGE\");\n        _transfer(owner, recipient, amountLessFee);\n        doFeeTransferForDmmIfNecessary(owner, feeRecipient, feeAmount);\n    }\n\n    /************************************\n     * Private & Internal Functions\n     */\n\n    function _mint(address owner, address recipient, uint underlyingAmount) internal returns (uint) {\n        // No need to check if recipient or msgSender are blacklisted because `_transfer` checks it.\n        blacklistable().checkNotBlacklisted(owner);\n\n        uint currentExchangeRate = this.updateExchangeRateIfNecessaryAndGet(_storage);\n        uint amount = underlyingAmount.underlyingToAmount(currentExchangeRate, EXCHANGE_RATE_BASE_RATE);\n\n        require(balanceOf(address(this)) >= amount, \"INSUFFICIENT_DMM_LIQUIDITY\");\n\n        // Transfer underlying to this contract\n        transferUnderlyingIn(owner, underlyingAmount);\n\n        // Transfer DMM to the recipient\n        _transfer(address(this), recipient, amount);\n\n        emit Mint(owner, recipient, amount);\n\n        require(amount >= minMintAmount, \"INSUFFICIENT_MINT_AMOUNT\");\n\n        return amount;\n    }\n\n    /**\n     * @dev Note, right now all invocations of this function set `shouldUseAllowance` to `false`. Reason being, all\n     *      calls are either done via explicit off-chain signatures (and therefore the owner and recipient are explicit;\n     *      anyone can call the function), OR the msgSender is both the owner and recipient, in which case no allowance\n     *      should be needed to redeem funds if the user is the spender of the same user's funds.\n     */\n    function _redeem(address owner, address recipient, uint amount, bool shouldUseAllowance) internal returns (uint) {\n        // No need to check owner or msgSender for blacklist because `_transfer` covers them.\n        blacklistable().checkNotBlacklisted(recipient);\n\n        uint currentExchangeRate = this.updateExchangeRateIfNecessaryAndGet(_storage);\n        uint underlyingAmount = amount.amountToUnderlying(currentExchangeRate, EXCHANGE_RATE_BASE_RATE);\n\n        IERC20 underlyingToken = IERC20(this.controller().getUnderlyingTokenForDmm(address(this)));\n        require(underlyingToken.balanceOf(address(this)) >= underlyingAmount, \"INSUFFICIENT_UNDERLYING_LIQUIDITY\");\n\n        if (shouldUseAllowance) {\n            uint newAllowance = allowance(owner, _msgSender()).sub(amount, \"INSUFFICIENT_ALLOWANCE\");\n            _approve(owner, _msgSender(), newAllowance);\n        }\n        _transfer(owner, address(this), amount);\n\n        // Transfer underlying to the recipient from this contract\n        transferUnderlyingOut(recipient, underlyingAmount);\n\n        emit Redeem(owner, recipient, amount);\n\n        require(amount >= minRedeemAmount, \"INSUFFICIENT_REDEEM_AMOUNT\");\n\n        return underlyingAmount;\n    }\n\n    function _mintFromGaslessRequest(\n        address owner,\n        address recipient,\n        uint nonce,\n        uint expiry,\n        uint underlyingAmount,\n        uint feeAmount,\n        address feeRecipient,\n        uint8 v,\n        bytes32 r,\n        bytes32 s\n    ) internal returns (uint) {\n        checkGaslessBlacklist(feeRecipient);\n\n        // To avoid stack too deep issues, splitting the call into 2 parts is essential.\n        _storage.validateOffChainMint(domainSeparator, MINT_TYPE_HASH, owner, recipient, nonce, expiry, underlyingAmount, feeAmount, feeRecipient, v, r, s);\n\n        // Initially, we mint to this contract so we can send handle the fees.\n        // We don't delegate the call for transferring the underlying in, because gasless requests are designed to\n        // allow any relayer to broadcast the user's cryptographically-secure message.\n        uint amount = _mint(owner, address(this), underlyingAmount);\n        require(amount >= feeAmount, \"FEE_TOO_LARGE\");\n\n        uint amountLessFee = amount.sub(feeAmount);\n        require(amountLessFee >= minMintAmount, \"INSUFFICIENT_MINT_AMOUNT\");\n\n        _transfer(address(this), recipient, amountLessFee);\n\n        doFeeTransferForDmmIfNecessary(address(this), feeRecipient, feeAmount);\n\n        return amountLessFee;\n    }\n\n    function _redeemFromGaslessRequest(\n        address owner,\n        address recipient,\n        uint nonce,\n        uint expiry,\n        uint amount,\n        uint feeAmount,\n        address feeRecipient,\n        uint8 v,\n        bytes32 r,\n        bytes32 s\n    ) internal returns (uint) {\n        checkGaslessBlacklist(feeRecipient);\n\n        // To avoid stack too deep issues, splitting the call into 2 parts is essential.\n        _storage.validateOffChainRedeem(domainSeparator, REDEEM_TYPE_HASH, owner, recipient, nonce, expiry, amount, feeAmount, feeRecipient, v, r, s);\n\n        uint amountLessFee = amount.sub(feeAmount, \"FEE_TOO_LARGE\");\n        require(amountLessFee >= minRedeemAmount, \"INSUFFICIENT_REDEEM_AMOUNT\");\n\n        uint underlyingAmount = _redeem(owner, recipient, amountLessFee, /* shouldUseAllowance */ false);\n        doFeeTransferForDmmIfNecessary(owner, feeRecipient, feeAmount);\n\n        return underlyingAmount;\n    }\n\n    function checkGaslessBlacklist(address feeRecipient) private view {\n        if (feeRecipient != address(0x0)) {\n            blacklistable().checkNotBlacklisted(feeRecipient);\n        }\n    }\n\n    function doFeeTransferForDmmIfNecessary(address owner, address feeRecipient, uint feeAmount) private {\n        if (feeAmount > 0) {\n            require(balanceOf(owner) >= feeAmount, \"INSUFFICIENT_BALANCE_FOR_FEE\");\n            _transfer(owner, feeRecipient, feeAmount);\n            emit FeeTransfer(owner, feeRecipient, feeAmount);\n        }\n    }\n\n}\n",
    "sourcePath": "/Users/andersonchen/DappPocket/dmm-protocol/contracts/protocol/impl/DmmToken.sol",
    "compiler": {
        "name": "solc",
        "version": "0.5.16+commit.9c3226ce.Emscripten.clang"
    },
    "schemaVersion": "3.1.0",
    "updatedAt": "2020-05-11T13:34:50.956Z",
    "devdoc": {
        "methods": {
            "allowance(address,address)": {
                "details": "See {IERC20-allowance}."
            },
            "approve(address,uint256)": {
                "details": "See {IERC20-approve}.     * Requirements:     * - `spender` cannot be the zero address."
            },
            "balanceOf(address)": {
                "details": "See {IERC20-balanceOf}."
            },
            "decreaseAllowance(address,uint256)": {
                "details": "Atomically decreases the allowance granted to `spender` by the caller.     * This is an alternative to {approve} that can be used as a mitigation for problems described in {IERC20-approve}.     * Emits an {Approval} event indicating the updated allowance.     * Requirements:     * - `spender` cannot be the zero address. - `spender` must have allowance for the caller of at least `subtractedValue`."
            },
            "increaseAllowance(address,uint256)": {
                "details": "Atomically increases the allowance granted to `spender` by the caller.     * This is an alternative to {approve} that can be used as a mitigation for problems described in {IERC20-approve}.     * Emits an {Approval} event indicating the updated allowance.     * Requirements:     * - `spender` cannot be the zero address."
            },
            "isOwner()": {
                "details": "Returns true if the caller is the current owner."
            },
            "owner()": {
                "details": "Returns the address of the current owner."
            },
            "renounceOwnership()": {
                "details": "Leaves the contract without owner. It will not be possible to call `onlyOwner` functions anymore. Can only be called by the current owner.     * NOTE: Renouncing ownership will leave the contract without an owner, thereby removing any functionality that is only available to the owner."
            },
            "totalSupply()": {
                "details": "See {IERC20-totalSupply}."
            },
            "transfer(address,uint256)": {
                "details": "See {IERC20-transfer}.     * Requirements:     * - `recipient` cannot be the zero address. - the caller must have a balance of at least `amount`."
            },
            "transferFrom(address,address,uint256)": {
                "details": "See {IERC20-transferFrom}.     * Emits an {Approval} event indicating the updated allowance. This is not required by the EIP. See the note at the beginning of {ERC20};     * Requirements: - `sender` and `recipient` cannot be the zero address. - `sender` must have a balance of at least `amount`. - the caller must have allowance for `sender`'s tokens of at least `amount`."
            },
            "transferOwnership(address)": {
                "details": "Transfers ownership of the contract to a new account (`newOwner`). Can only be called by the current owner."
            }
        }
    },
    "userdoc": {
        "methods": {}
    }
}